{
  "contractName": "Madicine",
  "abi": [
    {
      "inputs": [
        {
          "internalType": "address",
          "name": "_manufacturer",
          "type": "address"
        },
        {
          "internalType": "address",
          "name": "_shipper",
          "type": "address"
        },
        {
          "internalType": "address",
          "name": "_receiver",
          "type": "address"
        },
        {
          "internalType": "uint256",
          "name": "_receiverType",
          "type": "uint256"
        }
      ],
      "stateMutability": "nonpayable",
      "type": "constructor"
    },
    {
      "inputs": [],
      "name": "batch",
      "outputs": [
        {
          "internalType": "address",
          "name": "manufacturer",
          "type": "address"
        },
        {
          "internalType": "address",
          "name": "shipper",
          "type": "address"
        },
        {
          "internalType": "address",
          "name": "wholesaler",
          "type": "address"
        },
        {
          "internalType": "address",
          "name": "distributor",
          "type": "address"
        },
        {
          "internalType": "address",
          "name": "pharma",
          "type": "address"
        },
        {
          "internalType": "enum Madicine.MadicineStatus",
          "name": "status",
          "type": "uint8"
        }
      ],
      "stateMutability": "view",
      "type": "function"
    },
    {
      "inputs": [],
      "name": "owner",
      "outputs": [
        {
          "internalType": "address",
          "name": "",
          "type": "address"
        }
      ],
      "stateMutability": "view",
      "type": "function"
    },
    {
      "inputs": [
        {
          "internalType": "address",
          "name": "_shipper",
          "type": "address"
        }
      ],
      "name": "pickPackage",
      "outputs": [],
      "stateMutability": "nonpayable",
      "type": "function"
    },
    {
      "inputs": [
        {
          "internalType": "address",
          "name": "_receiver",
          "type": "address"
        },
        {
          "internalType": "address",
          "name": "_sender",
          "type": "address"
        }
      ],
      "name": "sendWD",
      "outputs": [],
      "stateMutability": "nonpayable",
      "type": "function"
    },
    {
      "inputs": [
        {
          "internalType": "address",
          "name": "_receiver",
          "type": "address"
        }
      ],
      "name": "receivedWD",
      "outputs": [],
      "stateMutability": "nonpayable",
      "type": "function"
    },
    {
      "inputs": [
        {
          "internalType": "address",
          "name": "_receiver",
          "type": "address"
        },
        {
          "internalType": "address",
          "name": "_sender",
          "type": "address"
        }
      ],
      "name": "sendDP",
      "outputs": [],
      "stateMutability": "nonpayable",
      "type": "function"
    },
    {
      "inputs": [
        {
          "internalType": "address",
          "name": "_receiver",
          "type": "address"
        }
      ],
      "name": "receiveDP",
      "outputs": [],
      "stateMutability": "nonpayable",
      "type": "function"
    }
  ],
  "bytecode": "0x608060405234801561001057600080fd5b506040516107e63803806107e683398101604081905261002f916100ff565b600080546001600160a01b038087166001600160a01b03199283168117909355600180548316909317835560028054918716919092161790558114156100a257600380546001600160a01b0319166001600160a01b0384161790556005805460ff60a01b1916600160a01b1790556100da565b80600214156100da57600480546001600160a01b0319166001600160a01b0384161790556005805460ff60a01b1916600360a01b1790555b50505050610149565b80516001600160a01b03811681146100fa57600080fd5b919050565b60008060008060808587031215610114578384fd5b61011d856100e3565b935061012b602086016100e3565b9250610139604086016100e3565b6060959095015193969295505050565b61068e806101586000396000f3fe608060405234801561001057600080fd5b506004361061007d5760003560e01c8063a19ffd601161005b578063a19ffd60146100c8578063a5f8cc74146100db578063af713566146100ee578063bd786835146101085761007d565b80633cc02fd914610082578063638e9a3d146100975780638da5cb5b146100aa575b600080fd5b6100956100903660046103ab565b61011b565b005b6100956100a53660046103ab565b61016f565b6100b261023e565b6040516100bf91906103fe565b60405180910390f35b6100956100d63660046103cc565b61024d565b6100956100e93660046103ab565b6102af565b6100f66102f6565b6040516100bf96959493929190610412565b6100956101163660046103cc565b61032d565b6004546001600160a01b038281169116146101515760405162461bcd60e51b815260040161014890610522565b60405180910390fd5b600580546004919060ff60a01b1916600160a01b835b021790555050565b6002546001600160a01b0382811691161461019c5760405162461bcd60e51b8152600401610148906105bf565b6000600554600160a01b900460ff1660068111156101ca57634e487b7160e01b600052602160045260246000fd5b146101e75760405162461bcd60e51b815260040161014890610571565b6003546001600160a01b031615610210576005805460ff60a01b1916600160a01b17905561023b565b6004546001600160a01b03161561023b57600580546003919060ff60a01b1916600160a01b83610167565b50565b6000546001600160a01b031681565b6004546001600160a01b0382811691161461027a5760405162461bcd60e51b8152600401610148906104ce565b600580546001600160a01b0319166001600160a01b03841617808255819060ff60a01b1916600160a01b825b02179055505050565b6005546001600160a01b038281169116146102dc5760405162461bcd60e51b81526004016101489061060e565b600580546006919060ff60a01b1916600160a01b83610167565b6001546002546003546004546005546001600160a01b0394851694938416939283169291821691811690600160a01b900460ff1686565b6003546001600160a01b0382811691161461035a5760405162461bcd60e51b815260040161014890610471565b600480546001600160a01b0319166001600160a01b038416179055600580546003919060ff60a01b1916600160a01b836102a6565b80356001600160a01b03811681146103a657600080fd5b919050565b6000602082840312156103bc578081fd5b6103c58261038f565b9392505050565b600080604083850312156103de578081fd5b6103e78361038f565b91506103f56020840161038f565b90509250929050565b6001600160a01b0391909116815260200190565b6001600160a01b0387811682528681166020830152858116604083015284811660608301528316608082015260c081016007831061046057634e487b7160e01b600052602160045260246000fd5b8260a0830152979650505050505050565b6020808252603c908201527f4f6e6c79207468652077686f6c6573616c65722063616e2073656e642074686560408201527f207061636b61676520746f20746865206469737472696275746f722e00000000606082015260800190565b60208082526034908201527f4f6e6c7920746865206469737472696275746f722063616e2073656e6420746860408201527332903830b1b5b0b3b2903a3790383430b936b09760611b606082015260800190565b6020808252602f908201527f4f6e6c7920746865206469737472696275746f722063616e206d61726b20746860408201526e34b99030b9903932b1b2b4bb32b21760891b606082015260800190565b6020808252602e908201527f5061636b616765206d7573742062652061742063726561746f7220737461676560408201526d103a37903132903834b1b5b2b21760911b606082015260800190565b6020808252602f908201527f4f6e6c79207468652061737369676e656420736869707065722063616e20706960408201526e31b5903a3432903830b1b5b0b3b29760891b606082015260800190565b6020808252602a908201527f4f6e6c792074686520706861726d612063616e206d61726b2074686973206173604082015269103932b1b2b4bb32b21760b11b60608201526080019056fea2646970667358221220cd4cf16269c03658c120c4b3ccead07d9ea5ac659e953e3c485ac0a241f59ade64736f6c63430008000033",
  "immutableReferences": {},
  "source": "// SPDX-License-Identifier: MIT\r\npragma solidity ^0.8.0;\r\n\r\ncontract Madicine {\r\n    enum MadicineStatus {\r\n        AtCreator,\r\n        PickedForWholesaler,\r\n        DeliveredToWholesaler,\r\n        PickedForDistributor,\r\n        DeliveredToDistributor,\r\n        PickedForPharma,\r\n        DeliveredToPharma\r\n    }\r\n\r\n    address public owner;\r\n\r\n    struct Batch {\r\n        address manufacturer;\r\n        address shipper;\r\n        address wholesaler;\r\n        address distributor;\r\n        address pharma;\r\n        MadicineStatus status;\r\n    }\r\n\r\n    Batch public batch;\r\n\r\n    constructor(\r\n        address _manufacturer,\r\n        address _shipper,\r\n        address _receiver,\r\n        uint256 _receiverType\r\n    ) {\r\n        owner = _manufacturer;\r\n        batch.manufacturer = _manufacturer;\r\n        batch.shipper = _shipper;\r\n\r\n        if (_receiverType == 1) {\r\n            batch.wholesaler = _receiver;\r\n            batch.status = MadicineStatus.PickedForWholesaler;\r\n        } else if (_receiverType == 2) {\r\n            batch.distributor = _receiver;\r\n            batch.status = MadicineStatus.PickedForDistributor;\r\n        }\r\n    }\r\n\r\n    function pickPackage(address _shipper) public {\r\n        require(_shipper == batch.shipper, \"Only the assigned shipper can pick the package.\");\r\n        require(batch.status == MadicineStatus.AtCreator, \"Package must be at creator stage to be picked.\");\r\n\r\n        if (batch.wholesaler != address(0)) {\r\n            batch.status = MadicineStatus.PickedForWholesaler;\r\n        } else if (batch.distributor != address(0)) {\r\n            batch.status = MadicineStatus.PickedForDistributor;\r\n        }\r\n    }\r\n\r\n    function sendWD(address _receiver, address _sender) public {\r\n        require(_sender == batch.wholesaler, \"Only the wholesaler can send the package to the distributor.\");\r\n        batch.distributor = _receiver;\r\n        batch.status = MadicineStatus.PickedForDistributor;\r\n    }\r\n\r\n    function receivedWD(address _receiver) public {\r\n        require(_receiver == batch.distributor, \"Only the distributor can mark this as received.\");\r\n        batch.status = MadicineStatus.DeliveredToDistributor;\r\n    }\r\n\r\n    function sendDP(address _receiver, address _sender) public {\r\n        require(_sender == batch.distributor, \"Only the distributor can send the package to pharma.\");\r\n        batch.pharma = _receiver;\r\n        batch.status = MadicineStatus.PickedForPharma;\r\n    }\r\n\r\n    function receiveDP(address _receiver) public {\r\n        require(_receiver == batch.pharma, \"Only the pharma can mark this as received.\");\r\n        batch.status = MadicineStatus.DeliveredToPharma;\r\n    }\r\n}\r\n",
  "sourcePath": "C:\\Users\\User\\OneDrive\\Desktop\\blockchain\\Blockchain_SupplyChain\\contracts\\Madicine.sol",
  "compiler": {
    "name": "solc",
    "version": "0.8.0+commit.c7dfd78e.Emscripten.clang"
  },
  "schemaVersion": "3.4.16",
  "updatedAt": "2024-12-08T16:39:19.293Z",
  "devdoc": {
    "kind": "dev",
    "methods": {},
    "version": 1
  },
  "userdoc": {
    "kind": "user",
    "methods": {},
    "version": 1
  }
}