{
  "contractName": "MadicineW_D",
  "abi": [
    {
      "inputs": [
        {
          "internalType": "address",
          "name": "_batchId",
          "type": "address"
        },
        {
          "internalType": "address",
          "name": "_sender",
          "type": "address"
        },
        {
          "internalType": "address",
          "name": "_shipper",
          "type": "address"
        },
        {
          "internalType": "address",
          "name": "_receiver",
          "type": "address"
        }
      ],
      "stateMutability": "nonpayable",
      "type": "constructor"
    },
    {
      "inputs": [],
      "name": "owner",
      "outputs": [
        {
          "internalType": "address",
          "name": "",
          "type": "address"
        }
      ],
      "stateMutability": "view",
      "type": "function"
    },
    {
      "inputs": [],
      "name": "package",
      "outputs": [
        {
          "internalType": "address",
          "name": "batchId",
          "type": "address"
        },
        {
          "internalType": "address",
          "name": "sender",
          "type": "address"
        },
        {
          "internalType": "address",
          "name": "shipper",
          "type": "address"
        },
        {
          "internalType": "address",
          "name": "receiver",
          "type": "address"
        },
        {
          "internalType": "enum MadicineW_D.PackageStatus",
          "name": "status",
          "type": "uint8"
        }
      ],
      "stateMutability": "view",
      "type": "function"
    },
    {
      "inputs": [
        {
          "internalType": "address",
          "name": "_batchId",
          "type": "address"
        },
        {
          "internalType": "address",
          "name": "_shipper",
          "type": "address"
        }
      ],
      "name": "pickWD",
      "outputs": [],
      "stateMutability": "nonpayable",
      "type": "function"
    },
    {
      "inputs": [
        {
          "internalType": "address",
          "name": "_batchId",
          "type": "address"
        },
        {
          "internalType": "address",
          "name": "_receiver",
          "type": "address"
        }
      ],
      "name": "receiveWD",
      "outputs": [],
      "stateMutability": "nonpayable",
      "type": "function"
    },
    {
      "inputs": [],
      "name": "getBatchIDStatus",
      "outputs": [
        {
          "internalType": "uint256",
          "name": "",
          "type": "uint256"
        }
      ],
      "stateMutability": "view",
      "type": "function"
    }
  ],
  "bytecode": "0x608060405234801561001057600080fd5b5060405161065d38038061065d83398101604081905261002f916100da565b600080546001600160a01b03199081166001600160a01b0395861690811783556040805160a0810182529787168089526020890183905295871690880181905293909516606087018190526080909601919091526001805482169093179092556002805483169093179092556003805482169092179091556004805460ff60a01b19921690921716905561012d565b80516001600160a01b03811681146100d557600080fd5b919050565b600080600080608085870312156100ef578384fd5b6100f8856100be565b9350610106602086016100be565b9250610114604086016100be565b9150610122606086016100be565b905092959194509250565b6105218061013c6000396000f3fe608060405234801561001057600080fd5b50600436106100575760003560e01c8063443c28d81461005c5780638da5cb5b14610071578063aaac97181461008f578063d2f3fcc7146100a8578063d7dcbe3b146100bd575b600080fd5b61006f61006a366004610312565b6100d0565b005b6100796101ce565b6040516100869190610344565b60405180910390f35b6100976101dd565b604051610086959493929190610372565b6100b061020d565b60405161008691906104e2565b61006f6100cb366004610312565b610241565b6003546001600160a01b038281169116146101065760405162461bcd60e51b81526004016100fd906103c8565b60405180910390fd5b6000600454600160a01b900460ff16600281111561013457634e487b7160e01b600052602160045260246000fd5b146101515760405162461bcd60e51b81526004016100fd906104a1565b6004805460ff60a01b1916600160a01b1780825560025460405163bd78683560e01b81526001600160a01b038681169463bd78683594610198949083169392169101610358565b600060405180830381600087803b1580156101b257600080fd5b505af11580156101c6573d6000803e3d6000fd5b505050505050565b6000546001600160a01b031681565b6001546002546003546004546001600160a01b03938416939283169291821691811690600160a01b900460ff1685565b600454600090600160a01b900460ff16600281111561023c57634e487b7160e01b600052602160045260246000fd5b905090565b6004546001600160a01b0382811691161461026e5760405162461bcd60e51b81526004016100fd90610417565b6001600454600160a01b900460ff16600281111561029c57634e487b7160e01b600052602160045260246000fd5b146102b95760405162461bcd60e51b81526004016100fd9061046a565b6004805460ff60a01b1916600160a11b178155604051633cc02fd960e01b81526001600160a01b03841691633cc02fd99161019891859101610344565b80356001600160a01b038116811461030d57600080fd5b919050565b60008060408385031215610324578182fd5b61032d836102f6565b915061033b602084016102f6565b90509250929050565b6001600160a01b0391909116815260200190565b6001600160a01b0392831681529116602082015260400190565b6001600160a01b038681168252858116602083015284811660408301528316606082015260a08101600383106103b857634e487b7160e01b600052602160045260246000fd5b8260808301529695505050505050565b6020808252602f908201527f4f6e6c79207468652061737369676e656420736869707065722063616e20706960408201526e31b5903a3432903830b1b5b0b3b29760891b606082015260800190565b60208082526033908201527f4f6e6c79207468652061737369676e65642072656365697665722063616e207260408201527232b1b2b4bb32903a3432903830b1b5b0b3b29760691b606082015260800190565b6020808252601d908201527f5061636b616765206d757374206265207069636b65642066697273742e000000604082015260600190565b60208082526021908201527f5061636b616765206d7573742062652061742063726561746f722073746167656040820152601760f91b606082015260800190565b9081526020019056fea26469706673582212207b961307b849fe51e54d6410ae92d5f4dfb0f055d23db30e2b28a74261be27ee64736f6c63430008000033",
  "immutableReferences": {},
  "source": "// SPDX-License-Identifier: MIT\r\npragma solidity ^0.8.0;\r\n\r\nimport \"./Madicine.sol\";\r\n\r\ncontract MadicineW_D {\r\n    address public owner;\r\n\r\n    enum PackageStatus {\r\n        AtCreator,\r\n        Picked,\r\n        Delivered\r\n    }\r\n\r\n    struct Package {\r\n        address batchId;\r\n        address sender;\r\n        address shipper;\r\n        address receiver;\r\n        PackageStatus status;\r\n    }\r\n\r\n    Package public package;\r\n\r\n    constructor(\r\n        address _batchId,\r\n        address _sender,\r\n        address _shipper,\r\n        address _receiver\r\n    ) {\r\n        owner = _sender;\r\n        package = Package({\r\n            batchId: _batchId,\r\n            sender: _sender,\r\n            shipper: _shipper,\r\n            receiver: _receiver,\r\n            status: PackageStatus.AtCreator\r\n        });\r\n    }\r\n\r\n    function pickWD(address _batchId, address _shipper) public {\r\n        require(\r\n            _shipper == package.shipper,\r\n            \"Only the assigned shipper can pick the package.\"\r\n        );\r\n        require(\r\n            package.status == PackageStatus.AtCreator,\r\n            \"Package must be at creator stage.\"\r\n        );\r\n        package.status = PackageStatus.Picked;\r\n\r\n        Madicine(_batchId).sendWD(package.receiver, package.sender);\r\n    }\r\n\r\n    function receiveWD(address _batchId, address _receiver) public {\r\n        require(\r\n            _receiver == package.receiver,\r\n            \"Only the assigned receiver can receive the package.\"\r\n        );\r\n        require(\r\n            package.status == PackageStatus.Picked,\r\n            \"Package must be picked first.\"\r\n        );\r\n        package.status = PackageStatus.Delivered;\r\n\r\n        Madicine(_batchId).receivedWD(_receiver);\r\n    }\r\n\r\n    function getBatchIDStatus() public view returns (uint256) {\r\n        return uint256(package.status);\r\n    }\r\n}\r\n",
  "sourcePath": "C:\\Users\\User\\OneDrive\\Desktop\\blockchain\\Blockchain_SupplyChain\\contracts\\MadicineW_D.sol",
  "compiler": {
    "name": "solc",
    "version": "0.8.0+commit.c7dfd78e.Emscripten.clang"
  },
  "schemaVersion": "3.4.16",
  "updatedAt": "2024-12-08T13:12:05.445Z",
  "devdoc": {
    "kind": "dev",
    "methods": {},
    "version": 1
  },
  "userdoc": {
    "kind": "user",
    "methods": {},
    "version": 1
  }
}