{
  "contractName": "MadicineD_P",
  "abi": [
    {
      "inputs": [
        {
          "internalType": "address",
          "name": "_batchId",
          "type": "address"
        },
        {
          "internalType": "address",
          "name": "_sender",
          "type": "address"
        },
        {
          "internalType": "address",
          "name": "_shipper",
          "type": "address"
        },
        {
          "internalType": "address",
          "name": "_receiver",
          "type": "address"
        }
      ],
      "stateMutability": "nonpayable",
      "type": "constructor"
    },
    {
      "inputs": [],
      "name": "owner",
      "outputs": [
        {
          "internalType": "address",
          "name": "",
          "type": "address"
        }
      ],
      "stateMutability": "view",
      "type": "function"
    },
    {
      "inputs": [],
      "name": "package",
      "outputs": [
        {
          "internalType": "address",
          "name": "batchId",
          "type": "address"
        },
        {
          "internalType": "address",
          "name": "sender",
          "type": "address"
        },
        {
          "internalType": "address",
          "name": "shipper",
          "type": "address"
        },
        {
          "internalType": "address",
          "name": "receiver",
          "type": "address"
        },
        {
          "internalType": "enum MadicineD_P.PackageStatus",
          "name": "status",
          "type": "uint8"
        }
      ],
      "stateMutability": "view",
      "type": "function"
    },
    {
      "inputs": [
        {
          "internalType": "address",
          "name": "_batchId",
          "type": "address"
        },
        {
          "internalType": "address",
          "name": "_shipper",
          "type": "address"
        }
      ],
      "name": "pickDP",
      "outputs": [],
      "stateMutability": "nonpayable",
      "type": "function"
    },
    {
      "inputs": [
        {
          "internalType": "address",
          "name": "_batchId",
          "type": "address"
        },
        {
          "internalType": "address",
          "name": "_receiver",
          "type": "address"
        }
      ],
      "name": "receiveDP",
      "outputs": [],
      "stateMutability": "nonpayable",
      "type": "function"
    },
    {
      "inputs": [],
      "name": "getBatchIDStatus",
      "outputs": [
        {
          "internalType": "uint256",
          "name": "",
          "type": "uint256"
        }
      ],
      "stateMutability": "view",
      "type": "function"
    }
  ],
  "bytecode": "0x608060405234801561001057600080fd5b5060405161068d38038061068d83398101604081905261002f916100da565b600080546001600160a01b03199081166001600160a01b0395861690811783556040805160a0810182529787168089526020890183905295871690880181905293909516606087018190526080909601919091526001805482169093179092556002805483169093179092556003805482169092179091556004805460ff60a01b19921690921716905561012d565b80516001600160a01b03811681146100d557600080fd5b919050565b600080600080608085870312156100ef578384fd5b6100f8856100be565b9350610106602086016100be565b9250610114604086016100be565b9150610122606086016100be565b905092959194509250565b6105518061013c6000396000f3fe608060405234801561001057600080fd5b50600436106100575760003560e01c806341709e501461005c5780638da5cb5b14610071578063aaac97181461008f578063d2f3fcc7146100a8578063d39ff0e7146100bd575b600080fd5b61006f61006a366004610312565b6100d0565b005b6100796101c4565b6040516100869190610344565b60405180910390f35b6100976101d3565b604051610086959493929190610372565b6100b0610203565b6040516100869190610512565b61006f6100cb366004610312565b610237565b6004546001600160a01b038281169116146101065760405162461bcd60e51b81526004016100fd906104bd565b60405180910390fd5b6001600454600160a01b900460ff16600281111561013457634e487b7160e01b600052602160045260246000fd5b146101515760405162461bcd60e51b81526004016100fd9061046b565b6004805460ff60a01b1916600160a11b17815560405163297e331d60e21b81526001600160a01b0384169163a5f8cc749161018e91859101610344565b600060405180830381600087803b1580156101a857600080fd5b505af11580156101bc573d6000803e3d6000fd5b505050505050565b6000546001600160a01b031681565b6001546002546003546004546001600160a01b03938416939283169291821691811690600160a01b900460ff1685565b600454600090600160a01b900460ff16600281111561023257634e487b7160e01b600052602160045260246000fd5b905090565b6003546001600160a01b038281169116146102645760405162461bcd60e51b81526004016100fd906103c8565b6000600454600160a01b900460ff16600281111561029257634e487b7160e01b600052602160045260246000fd5b146102af5760405162461bcd60e51b81526004016100fd90610419565b6004805460ff60a01b1916600160a01b1780825560025460405163050cffeb60e51b81526001600160a01b038681169463a19ffd609461018e949083169392169101610358565b80356001600160a01b038116811461030d57600080fd5b919050565b60008060408385031215610324578182fd5b61032d836102f6565b915061033b602084016102f6565b90509250929050565b6001600160a01b0391909116815260200190565b6001600160a01b0392831681529116602082015260400190565b6001600160a01b038681168252858116602083015284811660408301528316606082015260a08101600383106103b857634e487b7160e01b600052602160045260246000fd5b8260808301529695505050505050565b60208082526031908201527f4f6e6c7920746865206173736f63696174656420736869707065722063616e206040820152703834b1b5903a3432903830b1b5b0b3b29760791b606082015260800190565b60208082526032908201527f5061636b616765206d75737420626520696e2027417443726561746f722720736040820152713a30ba32903a37903132903834b1b5b2b21760711b606082015260800190565b60208082526032908201527f5061636b616765206d757374206265207069636b6564206265666f72652069746040820152711031b0b7103132903232b634bb32b932b21760711b606082015260800190565b60208082526035908201527f4f6e6c7920746865206173736f6369617465642072656365697665722063616e604082015274103932b1b2b4bb32903a3432903830b1b5b0b3b29760591b606082015260800190565b9081526020019056fea2646970667358221220ab666188d2a97c294d26408c2423d211f29245439eb961f0947635a2add7156c64736f6c63430008000033",
  "immutableReferences": {},
  "source": "// SPDX-License-Identifier: MIT\r\npragma solidity ^0.8.0;\r\n\r\nimport \"./Madicine.sol\";\r\n\r\ncontract MadicineD_P {\r\n    address public owner;\r\n\r\n    enum PackageStatus {\r\n        AtCreator,\r\n        Picked,\r\n        Delivered\r\n    }\r\n\r\n    struct Package {\r\n        address batchId;\r\n        address sender;\r\n        address shipper;\r\n        address receiver;\r\n        PackageStatus status;\r\n    }\r\n\r\n    Package public package;\r\n\r\n    constructor(\r\n        address _batchId,\r\n        address _sender,\r\n        address _shipper,\r\n        address _receiver\r\n    ) {\r\n        owner = _sender;\r\n        package = Package({\r\n            batchId: _batchId,\r\n            sender: _sender,\r\n            shipper: _shipper,\r\n            receiver: _receiver,\r\n            status: PackageStatus.AtCreator\r\n        });\r\n    }\r\n\r\n    function pickDP(address _batchId, address _shipper) public {\r\n        require(\r\n            _shipper == package.shipper,\r\n            \"Only the associated shipper can pick the package.\"\r\n        );\r\n        require(\r\n            package.status == PackageStatus.AtCreator,\r\n            \"Package must be in 'AtCreator' state to be picked.\"\r\n        );\r\n\r\n        package.status = PackageStatus.Picked;\r\n\r\n        Madicine(_batchId).sendDP(\r\n            package.receiver,\r\n            package.sender\r\n        );\r\n    }\r\n\r\n    function receiveDP(address _batchId, address _receiver) public {\r\n        require(\r\n            _receiver == package.receiver,\r\n            \"Only the associated receiver can receive the package.\"\r\n        );\r\n        require(\r\n            package.status == PackageStatus.Picked,\r\n            \"Package must be picked before it can be delivered.\"\r\n        );\r\n\r\n        package.status = PackageStatus.Delivered;\r\n\r\n        Madicine(_batchId).receiveDP(_receiver);\r\n    }\r\n\r\n    function getBatchIDStatus() public view returns (uint256) {\r\n        return uint256(package.status);\r\n    }\r\n}\r\n",
  "sourcePath": "C:\\Users\\User\\OneDrive\\Desktop\\blockchain\\Blockchain_SupplyChain\\contracts\\MadicineD_P.sol",
  "compiler": {
    "name": "solc",
    "version": "0.8.0+commit.c7dfd78e.Emscripten.clang"
  },
  "schemaVersion": "3.4.16",
  "updatedAt": "2024-12-08T16:39:19.300Z",
  "devdoc": {
    "kind": "dev",
    "methods": {},
    "version": 1
  },
  "userdoc": {
    "kind": "user",
    "methods": {},
    "version": 1
  }
}