{
  "contractName": "RawMaterials",
  "abi": [
    {
      "inputs": [
        {
          "internalType": "address",
          "name": "_supplier",
          "type": "address"
        },
        {
          "internalType": "bytes32",
          "name": "_description",
          "type": "bytes32"
        },
        {
          "internalType": "bytes32",
          "name": "_farmerName",
          "type": "bytes32"
        },
        {
          "internalType": "bytes32",
          "name": "_location",
          "type": "bytes32"
        },
        {
          "internalType": "uint256",
          "name": "_quantity",
          "type": "uint256"
        },
        {
          "internalType": "address",
          "name": "_shipper",
          "type": "address"
        },
        {
          "internalType": "address",
          "name": "_manufacturer",
          "type": "address"
        }
      ],
      "stateMutability": "nonpayable",
      "type": "constructor"
    },
    {
      "anonymous": false,
      "inputs": [
        {
          "indexed": true,
          "internalType": "address",
          "name": "batchId",
          "type": "address"
        },
        {
          "indexed": true,
          "internalType": "address",
          "name": "shipper",
          "type": "address"
        },
        {
          "indexed": true,
          "internalType": "address",
          "name": "manufacturer",
          "type": "address"
        },
        {
          "indexed": false,
          "internalType": "uint256",
          "name": "transporterType",
          "type": "uint256"
        },
        {
          "indexed": false,
          "internalType": "uint256",
          "name": "status",
          "type": "uint256"
        }
      ],
      "name": "ShipmentUpdate",
      "type": "event"
    },
    {
      "inputs": [],
      "name": "owner",
      "outputs": [
        {
          "internalType": "address",
          "name": "",
          "type": "address"
        }
      ],
      "stateMutability": "view",
      "type": "function"
    },
    {
      "inputs": [],
      "name": "package",
      "outputs": [
        {
          "internalType": "bytes32",
          "name": "productId",
          "type": "bytes32"
        },
        {
          "internalType": "bytes32",
          "name": "description",
          "type": "bytes32"
        },
        {
          "internalType": "bytes32",
          "name": "farmerName",
          "type": "bytes32"
        },
        {
          "internalType": "bytes32",
          "name": "location",
          "type": "bytes32"
        },
        {
          "internalType": "uint256",
          "name": "quantity",
          "type": "uint256"
        },
        {
          "internalType": "address",
          "name": "shipper",
          "type": "address"
        },
        {
          "internalType": "address",
          "name": "manufacturer",
          "type": "address"
        },
        {
          "internalType": "address",
          "name": "supplier",
          "type": "address"
        },
        {
          "internalType": "enum RawMaterials.PackageStatus",
          "name": "status",
          "type": "uint8"
        }
      ],
      "stateMutability": "view",
      "type": "function"
    },
    {
      "inputs": [
        {
          "internalType": "address",
          "name": "_shipper",
          "type": "address"
        }
      ],
      "name": "pickPackage",
      "outputs": [],
      "stateMutability": "nonpayable",
      "type": "function"
    },
    {
      "inputs": [
        {
          "internalType": "address",
          "name": "_manufacturer",
          "type": "address"
        }
      ],
      "name": "receivedPackage",
      "outputs": [],
      "stateMutability": "nonpayable",
      "type": "function"
    }
  ],
  "bytecode": "0x608060405234801561001057600080fd5b5060405161063638038061063683398101604081905261002f91610102565b600080546001600160a01b039889166001600160a01b031991821681178355604080516101208101825230808252602082018c90529181018a90526060810189905260808101889052958b1660a0870181905294909a1660c0860181905260e08601829052610100909501929092526001989098556002969096556003949094556004929092556005556006805485169092179091556007805484169091179055600880549092161760ff60a01b1916905561016b565b80516001600160a01b03811681146100fd57600080fd5b919050565b600080600080600080600060e0888a03121561011c578283fd5b610125886100e6565b96506020880151955060408801519450606088015193506080880151925061014f60a089016100e6565b915061015d60c089016100e6565b905092959891949750929550565b6104bc8061017a6000396000f3fe608060405234801561001057600080fd5b506004361061004c5760003560e01c806352b9996814610051578063638e9a3d146100665780638da5cb5b14610079578063aaac971814610097575b600080fd5b61006461005f3660046102ab565b6100b4565b005b6100646100743660046102ab565b6101d2565b610081610264565b60405161008e91906102d9565b60405180910390f35b61009f610273565b60405161008e999897969594939291906102ed565b6007546001600160a01b038281169116146100ea5760405162461bcd60e51b81526004016100e190610371565b60405180910390fd5b6001600854600160a01b900460ff16600281111561011857634e487b7160e01b600052602160045260246000fd5b146101355760405162461bcd60e51b81526004016100e19061040e565b600880546002919060ff60a01b1916600160a01b835b02179055506007546006546008546001600160a01b03928316929091169030907ff3ef229a52006ad83a5453cd9c02c79c841ccfdb65ad3f748788ab0ecf66296c90600190600160a01b900460ff1660028111156101b957634e487b7160e01b600052602160045260246000fd5b6040516101c7929190610363565b60405180910390a450565b6006546001600160a01b038281169116146101ff5760405162461bcd60e51b81526004016100e1906103bf565b6000600854600160a01b900460ff16600281111561022d57634e487b7160e01b600052602160045260246000fd5b1461024a5760405162461bcd60e51b81526004016100e190610445565b600880546001919060ff60a01b1916600160a01b8361014b565b6000546001600160a01b031681565b6001546002546003546004546005546006546007546008546001600160a01b039283169291821691811690600160a01b900460ff1689565b6000602082840312156102bc578081fd5b81356001600160a01b03811681146102d2578182fd5b9392505050565b6001600160a01b0391909116815260200190565b898152602081018990526040810188905260608101879052608081018690526001600160a01b0385811660a083015284811660c0830152831660e082015261012081016003831061034e57634e487b7160e01b600052602160045260246000fd5b826101008301529a9950505050505050505050565b918252602082015260400190565b6020808252602e908201527f4f6e6c7920746865206d616e7566616374757265722063616e2072656365697660408201526d32903a3432903830b1b5b0b3b29760911b606082015260800190565b6020808252602f908201527f4f6e6c79207468652061737369676e656420736869707065722063616e20706960408201526e31b5903a3432903830b1b5b0b3b29760891b606082015260800190565b6020808252601d908201527f5061636b616765206d757374206265207069636b65642066697273742e000000604082015260600190565b60208082526021908201527f5061636b616765206d7573742062652061742063726561746f722073746167656040820152601760f91b60608201526080019056fea26469706673582212201f3d7c5f6f6f18ea1f2c0132a7900c4c590aad0013046fc4a93168b7d4b6f48264736f6c63430008000033",
  "immutableReferences": {},
  "source": "// SPDX-License-Identifier: MIT\r\npragma solidity ^0.8.0;\r\n\r\ncontract RawMaterials {\r\n    address public owner;\r\n\r\n    enum PackageStatus {\r\n        AtCreator,\r\n        Picked,\r\n        Delivered\r\n    }\r\n\r\n    struct Package {\r\n        bytes32 productId;\r\n        bytes32 description;\r\n        bytes32 farmerName;\r\n        bytes32 location;\r\n        uint256 quantity;\r\n        address shipper;\r\n        address manufacturer;\r\n        address supplier;\r\n        PackageStatus status;\r\n    }\r\n\r\n    Package public package;\r\n\r\n    event ShipmentUpdate(\r\n        address indexed batchId,\r\n        address indexed shipper,\r\n        address indexed manufacturer,\r\n        uint256 transporterType,\r\n        uint256 status\r\n    );\r\n\r\n    constructor(\r\n        address _supplier,\r\n        bytes32 _description,\r\n        bytes32 _farmerName,\r\n        bytes32 _location,\r\n        uint256 _quantity,\r\n        address _shipper,\r\n        address _manufacturer\r\n    ) {\r\n        owner = _supplier;\r\n        package = Package({\r\n            productId: bytes32(uint256(uint160(address(this)))),\r\n            description: _description,\r\n            farmerName: _farmerName,\r\n            location: _location,\r\n            quantity: _quantity,\r\n            shipper: _shipper,\r\n            manufacturer: _manufacturer,\r\n            supplier: _supplier,\r\n            status: PackageStatus.AtCreator\r\n        });\r\n    }\r\n\r\n    function pickPackage(address _shipper) public {\r\n        require(_shipper == package.shipper, \"Only the assigned shipper can pick the package.\");\r\n        require(package.status == PackageStatus.AtCreator, \"Package must be at creator stage.\");\r\n        package.status = PackageStatus.Picked;\r\n\r\n        emit ShipmentUpdate(address(this), package.shipper, package.manufacturer, 1, uint256(package.status));\r\n    }\r\n\r\n    function receivedPackage(address _manufacturer) public {\r\n        require(_manufacturer == package.manufacturer, \"Only the manufacturer can receive the package.\");\r\n        require(package.status == PackageStatus.Picked, \"Package must be picked first.\");\r\n        package.status = PackageStatus.Delivered;\r\n\r\n        emit ShipmentUpdate(address(this), package.shipper, package.manufacturer, 1, uint256(package.status));\r\n    }\r\n}\r\n",
  "sourcePath": "C:\\Users\\User\\OneDrive\\Desktop\\blockchain\\Blockchain_SupplyChain\\contracts\\RawMaterials.sol",
  "compiler": {
    "name": "solc",
    "version": "0.8.0+commit.c7dfd78e.Emscripten.clang"
  },
  "schemaVersion": "3.4.16",
  "updatedAt": "2024-12-08T13:12:05.452Z",
  "devdoc": {
    "kind": "dev",
    "methods": {},
    "version": 1
  },
  "userdoc": {
    "kind": "user",
    "methods": {},
    "version": 1
  }
}