{
  "contractName": "SupplyChainOld",
  "abi": [
    {
      "inputs": [],
      "stateMutability": "nonpayable",
      "type": "constructor"
    },
    {
      "anonymous": false,
      "inputs": [
        {
          "indexed": true,
          "internalType": "bytes32",
          "name": "productId",
          "type": "bytes32"
        },
        {
          "indexed": true,
          "internalType": "address",
          "name": "supplier",
          "type": "address"
        },
        {
          "indexed": false,
          "internalType": "address",
          "name": "shipper",
          "type": "address"
        },
        {
          "indexed": true,
          "internalType": "address",
          "name": "receiver",
          "type": "address"
        }
      ],
      "name": "RawSupplyInitiated",
      "type": "event"
    },
    {
      "anonymous": false,
      "inputs": [
        {
          "indexed": true,
          "internalType": "bytes32",
          "name": "batchId",
          "type": "bytes32"
        },
        {
          "indexed": true,
          "internalType": "address",
          "name": "shipper",
          "type": "address"
        },
        {
          "indexed": true,
          "internalType": "address",
          "name": "receiver",
          "type": "address"
        },
        {
          "indexed": false,
          "internalType": "uint256",
          "name": "transporterType",
          "type": "uint256"
        },
        {
          "indexed": false,
          "internalType": "uint256",
          "name": "status",
          "type": "uint256"
        }
      ],
      "name": "ShipmentUpdated",
      "type": "event"
    },
    {
      "anonymous": false,
      "inputs": [
        {
          "indexed": true,
          "internalType": "address",
          "name": "ethAddress",
          "type": "address"
        },
        {
          "indexed": false,
          "internalType": "bytes32",
          "name": "name",
          "type": "bytes32"
        }
      ],
      "name": "UserRegistered",
      "type": "event"
    },
    {
      "anonymous": false,
      "inputs": [
        {
          "indexed": true,
          "internalType": "address",
          "name": "ethAddress",
          "type": "address"
        },
        {
          "indexed": false,
          "internalType": "bytes32",
          "name": "name",
          "type": "bytes32"
        },
        {
          "indexed": false,
          "internalType": "enum SupplyChainOld.Roles",
          "name": "role",
          "type": "uint8"
        }
      ],
      "name": "UserRoleReassigned",
      "type": "event"
    },
    {
      "anonymous": false,
      "inputs": [
        {
          "indexed": true,
          "internalType": "address",
          "name": "ethAddress",
          "type": "address"
        },
        {
          "indexed": false,
          "internalType": "bytes32",
          "name": "name",
          "type": "bytes32"
        },
        {
          "indexed": false,
          "internalType": "enum SupplyChainOld.Roles",
          "name": "role",
          "type": "uint8"
        }
      ],
      "name": "UserRoleRevoked",
      "type": "event"
    },
    {
      "inputs": [],
      "name": "owner",
      "outputs": [
        {
          "internalType": "address",
          "name": "",
          "type": "address"
        }
      ],
      "stateMutability": "view",
      "type": "function"
    },
    {
      "inputs": [
        {
          "internalType": "bytes32",
          "name": "",
          "type": "bytes32"
        }
      ],
      "name": "rawProductDetails",
      "outputs": [
        {
          "internalType": "bytes32",
          "name": "productId",
          "type": "bytes32"
        },
        {
          "internalType": "bytes32",
          "name": "description",
          "type": "bytes32"
        },
        {
          "internalType": "bytes32",
          "name": "farmerName",
          "type": "bytes32"
        },
        {
          "internalType": "bytes32",
          "name": "location",
          "type": "bytes32"
        },
        {
          "internalType": "uint256",
          "name": "quantity",
          "type": "uint256"
        },
        {
          "internalType": "address",
          "name": "shipper",
          "type": "address"
        },
        {
          "internalType": "address",
          "name": "receiver",
          "type": "address"
        },
        {
          "internalType": "address",
          "name": "supplier",
          "type": "address"
        },
        {
          "internalType": "enum SupplyChainOld.PackageStatus",
          "name": "status",
          "type": "uint8"
        }
      ],
      "stateMutability": "view",
      "type": "function"
    },
    {
      "inputs": [
        {
          "internalType": "address",
          "name": "",
          "type": "address"
        },
        {
          "internalType": "uint256",
          "name": "",
          "type": "uint256"
        }
      ],
      "name": "supplierRawProducts",
      "outputs": [
        {
          "internalType": "bytes32",
          "name": "",
          "type": "bytes32"
        }
      ],
      "stateMutability": "view",
      "type": "function"
    },
    {
      "inputs": [
        {
          "internalType": "address",
          "name": "",
          "type": "address"
        }
      ],
      "name": "userDetails",
      "outputs": [
        {
          "internalType": "bytes32",
          "name": "name",
          "type": "bytes32"
        },
        {
          "internalType": "bytes32",
          "name": "location",
          "type": "bytes32"
        },
        {
          "internalType": "address",
          "name": "ethAddress",
          "type": "address"
        },
        {
          "internalType": "enum SupplyChainOld.Roles",
          "name": "role",
          "type": "uint8"
        }
      ],
      "stateMutability": "view",
      "type": "function"
    },
    {
      "inputs": [
        {
          "internalType": "uint256",
          "name": "",
          "type": "uint256"
        }
      ],
      "name": "users",
      "outputs": [
        {
          "internalType": "address",
          "name": "",
          "type": "address"
        }
      ],
      "stateMutability": "view",
      "type": "function"
    },
    {
      "inputs": [
        {
          "internalType": "address",
          "name": "ethAddress",
          "type": "address"
        },
        {
          "internalType": "bytes32",
          "name": "name",
          "type": "bytes32"
        },
        {
          "internalType": "bytes32",
          "name": "location",
          "type": "bytes32"
        },
        {
          "internalType": "uint256",
          "name": "role",
          "type": "uint256"
        }
      ],
      "name": "registerUser",
      "outputs": [],
      "stateMutability": "nonpayable",
      "type": "function"
    },
    {
      "inputs": [
        {
          "internalType": "address",
          "name": "userAddress",
          "type": "address"
        }
      ],
      "name": "revokeRole",
      "outputs": [],
      "stateMutability": "nonpayable",
      "type": "function"
    },
    {
      "inputs": [
        {
          "internalType": "address",
          "name": "userAddress",
          "type": "address"
        },
        {
          "internalType": "uint256",
          "name": "role",
          "type": "uint256"
        }
      ],
      "name": "reassignRole",
      "outputs": [],
      "stateMutability": "nonpayable",
      "type": "function"
    },
    {
      "inputs": [
        {
          "internalType": "bytes32",
          "name": "description",
          "type": "bytes32"
        },
        {
          "internalType": "bytes32",
          "name": "farmerName",
          "type": "bytes32"
        },
        {
          "internalType": "bytes32",
          "name": "location",
          "type": "bytes32"
        },
        {
          "internalType": "uint256",
          "name": "quantity",
          "type": "uint256"
        },
        {
          "internalType": "address",
          "name": "shipper",
          "type": "address"
        },
        {
          "internalType": "address",
          "name": "receiver",
          "type": "address"
        }
      ],
      "name": "supplyRawMaterials",
      "outputs": [],
      "stateMutability": "nonpayable",
      "type": "function"
    },
    {
      "inputs": [
        {
          "internalType": "bytes32",
          "name": "productId",
          "type": "bytes32"
        },
        {
          "internalType": "address",
          "name": "shipper",
          "type": "address"
        }
      ],
      "name": "pickPackage",
      "outputs": [],
      "stateMutability": "nonpayable",
      "type": "function"
    },
    {
      "inputs": [
        {
          "internalType": "bytes32",
          "name": "productId",
          "type": "bytes32"
        },
        {
          "internalType": "address",
          "name": "receiver",
          "type": "address"
        }
      ],
      "name": "receivePackage",
      "outputs": [],
      "stateMutability": "nonpayable",
      "type": "function"
    },
    {
      "inputs": [],
      "name": "getUsersCount",
      "outputs": [
        {
          "internalType": "uint256",
          "name": "",
          "type": "uint256"
        }
      ],
      "stateMutability": "view",
      "type": "function"
    },
    {
      "inputs": [
        {
          "internalType": "uint256",
          "name": "index",
          "type": "uint256"
        }
      ],
      "name": "getUserByIndex",
      "outputs": [
        {
          "components": [
            {
              "internalType": "bytes32",
              "name": "name",
              "type": "bytes32"
            },
            {
              "internalType": "bytes32",
              "name": "location",
              "type": "bytes32"
            },
            {
              "internalType": "address",
              "name": "ethAddress",
              "type": "address"
            },
            {
              "internalType": "enum SupplyChainOld.Roles",
              "name": "role",
              "type": "uint8"
            }
          ],
          "internalType": "struct SupplyChainOld.UserInfo",
          "name": "",
          "type": "tuple"
        }
      ],
      "stateMutability": "view",
      "type": "function"
    },
    {
      "inputs": [
        {
          "internalType": "address",
          "name": "supplier",
          "type": "address"
        }
      ],
      "name": "getRawProductsBySupplier",
      "outputs": [
        {
          "internalType": "bytes32[]",
          "name": "",
          "type": "bytes32[]"
        }
      ],
      "stateMutability": "view",
      "type": "function"
    },
    {
      "inputs": [
        {
          "internalType": "bytes32",
          "name": "productId",
          "type": "bytes32"
        }
      ],
      "name": "getRawProductDetails",
      "outputs": [
        {
          "components": [
            {
              "internalType": "bytes32",
              "name": "productId",
              "type": "bytes32"
            },
            {
              "internalType": "bytes32",
              "name": "description",
              "type": "bytes32"
            },
            {
              "internalType": "bytes32",
              "name": "farmerName",
              "type": "bytes32"
            },
            {
              "internalType": "bytes32",
              "name": "location",
              "type": "bytes32"
            },
            {
              "internalType": "uint256",
              "name": "quantity",
              "type": "uint256"
            },
            {
              "internalType": "address",
              "name": "shipper",
              "type": "address"
            },
            {
              "internalType": "address",
              "name": "receiver",
              "type": "address"
            },
            {
              "internalType": "address",
              "name": "supplier",
              "type": "address"
            },
            {
              "internalType": "enum SupplyChainOld.PackageStatus",
              "name": "status",
              "type": "uint8"
            }
          ],
          "internalType": "struct SupplyChainOld.RawProductInfo",
          "name": "",
          "type": "tuple"
        }
      ],
      "stateMutability": "view",
      "type": "function"
    }
  ],
  "bytecode": "0x608060405234801561001057600080fd5b50600080546001600160a01b0319163317905561143c806100326000396000f3fe608060405234801561001057600080fd5b50600436106100f55760003560e01c80638da5cb5b11610097578063a4a1e26311610066578063a4a1e26314610224578063a93c7abb1461022c578063eb858eac1461023f578063ff5d32fe14610252576100f5565b80638da5cb5b146101c15780638f5ed71b146101c9578063923f645a146101e95780639955deac146101fc576100f5565b8063365b98b2116100d3578063365b98b21461015857806340ce2d1d1461017857806348dec2a71461018b57806380e52e3f146101ae576100f5565b8063040e5752146100fa57806306158759146101235780631ae5343214610138575b600080fd5b61010d610108366004610ecb565b610272565b60405161011a9190611056565b60405180910390f35b610136610131366004610f65565b6102df565b005b61014b610146366004610f4d565b6103f2565b60405161011a9190611329565b61016b610166366004610f4d565b6104cb565b60405161011a9190611042565b610136610186366004610f65565b6104f5565b61019e610199366004610ecb565b6105ea565b60405161011a94939291906110a3565b6101366101bc366004610ecb565b61061f565b61016b61073f565b6101dc6101d7366004610f24565b61074e565b60405161011a919061109a565b6101366101f7366004610eec565b61077f565b61020f61020a366004610f4d565b610985565b60405161011a999897969594939291906110d6565b6101dc6109e4565b61013661023a366004610f24565b6109ea565b61013661024d366004610f90565b610b4f565b610265610260366004610f4d565b610d52565b60405161011a91906113b1565b6001600160a01b0381166000908152600460209081526040918290208054835181840281018401909452808452606093928301828280156102d257602002820191906000526020600020905b8154815260200190600101908083116102be575b505050505090505b919050565b6000828152600360205260409020600501546001600160a01b038281169116146103245760405162461bcd60e51b815260040161031b906112fa565b60405180910390fd5b60008083815260036020526040902060070154600160a01b900460ff16600281111561036057634e487b7160e01b600052602160045260246000fd5b1461037d5760405162461bcd60e51b815260040161031b9061119d565b600082815260036020526040902060078101805460ff60a01b1916600160a01b179055600601546001600160a01b03908116908216837f567efcb45c9332e155f90bb70100dbb4fdeb68ee0a23f2a52f30beef8b32a7e86001805b6040516103e6929190611149565b60405180910390a45050565b6103fa610e40565b60008281526003602081815260409283902083516101208101855281548152600182015492810192909252600280820154948301949094529182015460608201526004820154608082015260058201546001600160a01b0390811660a08301526006830154811660c0830152600783015490811660e08301529092610100840191600160a01b900460ff16908111156104a357634e487b7160e01b600052602160045260246000fd5b60028111156104c257634e487b7160e01b600052602160045260246000fd5b90525092915050565b600281815481106104db57600080fd5b6000918252602090912001546001600160a01b0316905081565b6000828152600360205260409020600601546001600160a01b038281169116146105315760405162461bcd60e51b815260040161031b90611270565b6001600083815260036020526040902060070154600160a01b900460ff16600281111561056e57634e487b7160e01b600052602160045260246000fd5b1461058b5760405162461bcd60e51b815260040161031b90611202565b600082815260036020526040902060078101805460ff60a01b1916600160a11b179055600501546001600160a01b038281169116837f567efcb45c9332e155f90bb70100dbb4fdeb68ee0a23f2a52f30beef8b32a7e8600160026103d8565b60016020819052600091825260409091208054918101546002909101546001600160a01b03811690600160a01b900460ff1684565b6000546001600160a01b031633146106495760405162461bcd60e51b815260040161031b90611157565b60006001600160a01b038216600090815260016020526040902060020154600160a01b900460ff16600781111561069057634e487b7160e01b600052602160045260246000fd5b14156106ae5760405162461bcd60e51b815260040161031b906112a0565b6001600160a01b03811660008181526001602052604090819020805460029091015491517fb221b0c5a2094fba8f2c4794a2f46c2841c85c7ee4e5aa7d535b6962768169229261070a9291600160a01b90910460ff1690611135565b60405180910390a26001600160a01b03166000908152600160205260409020600201805460ff60a01b1916600760a01b179055565b6000546001600160a01b031681565b6004602052816000526040600020818154811061076a57600080fd5b90600052602060002001600091509150505481565b6000546001600160a01b031633146107a95760405162461bcd60e51b815260040161031b90611157565b60006001600160a01b038516600090815260016020526040902060020154600160a01b900460ff1660078111156107f057634e487b7160e01b600052602160045260246000fd5b1461080d5760405162461bcd60e51b815260040161031b90611239565b6040518060800160405280848152602001838152602001856001600160a01b0316815260200182600781111561085357634e487b7160e01b600052602160045260246000fd5b600781111561087257634e487b7160e01b600052602160045260246000fd5b90526001600160a01b03858116600090815260016020818152604092839020855181559085015191810191909155908301516002820180546001600160a01b0319169190931617808355606084015191929060ff60a01b1916600160a01b8360078111156108f057634e487b7160e01b600052602160045260246000fd5b021790555050600280546001810182556000919091527f405787fa12a823e0f2b7631cc41b3ba8828b3321ca811111fa75cd3aa3bb5ace0180546001600160a01b0319166001600160a01b0387169081179091556040519091507f4c5d15f5779ae1ecd7d55bd3283d898e29c35743d172bd7b83a16e17bc0afe2a9061097790869061109a565b60405180910390a250505050565b600360208190526000918252604090912080546001820154600283015493830154600484015460058501546006860154600790960154949693959394929391926001600160a01b0391821692821691811690600160a01b900460ff1689565b60025490565b6000546001600160a01b03163314610a145760405162461bcd60e51b815260040161031b90611157565b60006001600160a01b038316600090815260016020526040902060020154600160a01b900460ff166007811115610a5b57634e487b7160e01b600052602160045260246000fd5b1415610a795760405162461bcd60e51b815260040161031b906112a0565b806007811115610a9957634e487b7160e01b600052602160045260246000fd5b6001600160a01b0383166000908152600160205260409020600201805460ff60a01b1916600160a01b836007811115610ae257634e487b7160e01b600052602160045260246000fd5b02179055506001600160a01b03821660008181526001602052604090819020805460029091015491517fef56fbae76b357fedd7329517d0be21c4fa93026c0c3c550114888f5b22f6ee392610b439291600160a01b90910460ff1690611135565b60405180910390a25050565b60018033600090815260016020526040902060020154600160a01b900460ff166007811115610b8e57634e487b7160e01b600052602160045260246000fd5b14610bab5760405162461bcd60e51b815260040161031b906112ce565b6000334386604051602001610bc293929190611018565b60408051808303601f190181528282528051602091820120610120840183528084528184018c81528484018c8152606086018c8152608087018c81526001600160a01b038c811660a08a019081528c821660c08b019081523360e08c0190815260006101008d018181528a825260039b8c90529b90208c5181559751600189015595516002808901919091559451988701989098559151600486015590516005850180546001600160a01b03199081169284169290921790559551600685018054881691831691909117905591516007840180549096169216919091178085559451929650909391929160ff60a01b191690600160a01b908490811115610cd957634e487b7160e01b600052602160045260246000fd5b02179055505033600081815260046020908152604080832080546001810182559084529190922001849055516001600160a01b038616925083907f6ff24a680e51d6b34ba5b790a2d2e28927ecfa5334321f42b88ed0dc4380d33a90610d40908990611042565b60405180910390a45050505050505050565b610d5a610e8d565b6002548210610d7b5760405162461bcd60e51b815260040161031b906111d4565b6001600060028481548110610da057634e487b7160e01b600052603260045260246000fd5b60009182526020808320909101546001600160a01b03908116845283820194909452604092830190912082516080810184528154815260018201549281019290925260028101549384169282019290925291606083019060ff600160a01b909104166007811115610e2157634e487b7160e01b600052602160045260246000fd5b60078111156104c257634e487b7160e01b600052602160045260246000fd5b6040805161012081018252600080825260208201819052918101829052606081018290526080810182905260a0810182905260c0810182905260e08101829052906101008201905b905290565b60408051608081018252600080825260208201819052918101829052906060820190610e88565b80356001600160a01b03811681146102da57600080fd5b600060208284031215610edc578081fd5b610ee582610eb4565b9392505050565b60008060008060808587031215610f01578283fd5b610f0a85610eb4565b966020860135965060408601359560600135945092505050565b60008060408385031215610f36578182fd5b610f3f83610eb4565b946020939093013593505050565b600060208284031215610f5e578081fd5b5035919050565b60008060408385031215610f77578182fd5b82359150610f8760208401610eb4565b90509250929050565b60008060008060008060c08789031215610fa8578182fd5b86359550602087013594506040870135935060608701359250610fcd60808801610eb4565b9150610fdb60a08801610eb4565b90509295509295509295565b6001600160a01b03169052565b60038110611004576110046113f0565b9052565b60088110611004576110046113f0565b60609390931b6bffffffffffffffffffffffff191683526014830191909152603482015260540190565b6001600160a01b0391909116815260200190565b6020808252825182820181905260009190848201906040850190845b8181101561108e57835183529284019291840191600101611072565b50909695505050505050565b90815260200190565b848152602081018490526001600160a01b0383166040820152608081016110cd6060830184611008565b95945050505050565b898152602081018990526040810188905260608101879052608081018690526001600160a01b0385811660a083015284811660c0830152831660e08201526101208101611127610100830184610ff4565b9a9950505050505050505050565b82815260408101610ee56020830184611008565b918252602082015260400190565b60208082526026908201527f4f6e6c7920746865206f776e65722063616e2063616c6c20746869732066756e60408201526531ba34b7b71760d11b606082015260800190565b6020808252601d908201527f5061636b616765206e6f742061742063726561746f722073746167652e000000604082015260600190565b60208082526014908201527324b73232bc1037baba1037b3103137bab732399760611b604082015260600190565b60208082526017908201527f5061636b616765206e6f74207069636b6564207965742e000000000000000000604082015260600190565b6020808252601b908201527f5573657220697320616c726561647920726567697374657265642e0000000000604082015260600190565b6020808252601690820152752ab730baba3437b934bd32b2103932b1b2b4bb32b91760511b604082015260600190565b6020808252601490820152732ab9b2b9103737ba103932b3b4b9ba32b932b21760611b604082015260600190565b6020808252601290820152712ab730baba3437b934bd32b2103937b6329760711b604082015260600190565b6020808252601590820152742ab730baba3437b934bd32b21039b434b83832b91760591b604082015260600190565b600061012082019050825182526020830151602083015260408301516040830152606083015160608301526080830151608083015260018060a01b0360a08401511660a083015260c083015161138260c0840182610fe7565b5060e083015161139560e0840182610fe7565b50610100808401516113a982850182610ff4565b505092915050565b81518152602080830151908201526040808301516001600160a01b03169082015260608083015160808301916113e990840182611008565b5092915050565b634e487b7160e01b600052602160045260246000fdfea264697066735822122001d610a97d730d03a28aa7bd1138cf5103281526321f2f75104aa053b431ee9264736f6c63430008000033",
  "immutableReferences": {},
  "source": "// SPDX-License-Identifier: MIT\r\npragma solidity ^0.8.0;\r\n\r\ncontract SupplyChainOld {\r\n    address public owner;\r\n\r\n    enum Roles {\r\n        NoRole,\r\n        Supplier,\r\n        Transporter,\r\n        Manufacturer,\r\n        Wholesaler,\r\n        Distributor,\r\n        Pharma,\r\n        Revoked\r\n    }\r\n\r\n    enum PackageStatus {\r\n        AtCreator,\r\n        Picked,\r\n        Delivered\r\n    }\r\n\r\n    struct UserInfo {\r\n        bytes32 name;\r\n        bytes32 location;\r\n        address ethAddress;\r\n        Roles role;\r\n    }\r\n\r\n    mapping(address => UserInfo) public userDetails;\r\n    address[] public users;\r\n\r\n    struct RawProductInfo {\r\n        bytes32 productId;\r\n        bytes32 description;\r\n        bytes32 farmerName;\r\n        bytes32 location;\r\n        uint256 quantity;\r\n        address shipper;\r\n        address receiver;\r\n        address supplier;\r\n        PackageStatus status;\r\n    }\r\n\r\n    mapping(bytes32 => RawProductInfo) public rawProductDetails;\r\n    mapping(address => bytes32[]) public supplierRawProducts;\r\n\r\n    event UserRegistered(address indexed ethAddress, bytes32 name);\r\n    event UserRoleRevoked(address indexed ethAddress, bytes32 name, Roles role);\r\n    event UserRoleReassigned(address indexed ethAddress, bytes32 name, Roles role);\r\n    event RawSupplyInitiated(\r\n        bytes32 indexed productId,\r\n        address indexed supplier,\r\n        address shipper,\r\n        address indexed receiver\r\n    );\r\n    event ShipmentUpdated(\r\n        bytes32 indexed batchId,\r\n        address indexed shipper,\r\n        address indexed receiver,\r\n        uint256 transporterType,\r\n        uint256 status\r\n    );\r\n\r\n    constructor() {\r\n        owner = msg.sender;\r\n    }\r\n\r\n    modifier onlyOwner() {\r\n        require(msg.sender == owner, \"Only the owner can call this function.\");\r\n        _;\r\n    }\r\n\r\n    modifier onlyRole(Roles requiredRole) {\r\n        require(userDetails[msg.sender].role == requiredRole, \"Unauthorized role.\");\r\n        _;\r\n    }\r\n\r\n    function registerUser(\r\n        address ethAddress,\r\n        bytes32 name,\r\n        bytes32 location,\r\n        uint256 role\r\n    ) public onlyOwner {\r\n        require(userDetails[ethAddress].role == Roles.NoRole, \"User is already registered.\");\r\n        userDetails[ethAddress] = UserInfo({\r\n            name: name,\r\n            location: location,\r\n            ethAddress: ethAddress,\r\n            role: Roles(role)\r\n        });\r\n        users.push(ethAddress);\r\n        emit UserRegistered(ethAddress, name);\r\n    }\r\n\r\n    function revokeRole(address userAddress) public onlyOwner {\r\n        require(userDetails[userAddress].role != Roles.NoRole, \"User not registered.\");\r\n        emit UserRoleRevoked(\r\n            userAddress,\r\n            userDetails[userAddress].name,\r\n            userDetails[userAddress].role\r\n        );\r\n        userDetails[userAddress].role = Roles.Revoked;\r\n    }\r\n\r\n    function reassignRole(address userAddress, uint256 role) public onlyOwner {\r\n        require(userDetails[userAddress].role != Roles.NoRole, \"User not registered.\");\r\n        userDetails[userAddress].role = Roles(role);\r\n        emit UserRoleReassigned(\r\n            userAddress,\r\n            userDetails[userAddress].name,\r\n            userDetails[userAddress].role\r\n        );\r\n    }\r\n\r\n    function supplyRawMaterials(\r\n        bytes32 description,\r\n        bytes32 farmerName,\r\n        bytes32 location,\r\n        uint256 quantity,\r\n        address shipper,\r\n        address receiver\r\n    ) public onlyRole(Roles.Supplier) {\r\n        bytes32 productId = keccak256(\r\n            abi.encodePacked(msg.sender, block.number, quantity)\r\n        );\r\n        rawProductDetails[productId] = RawProductInfo({\r\n            productId: productId,\r\n            description: description,\r\n            farmerName: farmerName,\r\n            location: location,\r\n            quantity: quantity,\r\n            shipper: shipper,\r\n            receiver: receiver,\r\n            supplier: msg.sender,\r\n            status: PackageStatus.AtCreator\r\n        });\r\n        supplierRawProducts[msg.sender].push(productId);\r\n        emit RawSupplyInitiated(productId, msg.sender, shipper, receiver);\r\n    }\r\n\r\n    function pickPackage(bytes32 productId, address shipper) public {\r\n        require(\r\n            rawProductDetails[productId].shipper == shipper,\r\n            \"Unauthorized shipper.\"\r\n        );\r\n        require(\r\n            rawProductDetails[productId].status == PackageStatus.AtCreator,\r\n            \"Package not at creator stage.\"\r\n        );\r\n        rawProductDetails[productId].status = PackageStatus.Picked;\r\n        emit ShipmentUpdated(\r\n            productId,\r\n            shipper,\r\n            rawProductDetails[productId].receiver,\r\n            1,\r\n            uint256(PackageStatus.Picked)\r\n        );\r\n    }\r\n\r\n    function receivePackage(bytes32 productId, address receiver) public {\r\n        require(\r\n            rawProductDetails[productId].receiver == receiver,\r\n            \"Unauthorized receiver.\"\r\n        );\r\n        require(\r\n            rawProductDetails[productId].status == PackageStatus.Picked,\r\n            \"Package not picked yet.\"\r\n        );\r\n        rawProductDetails[productId].status = PackageStatus.Delivered;\r\n        emit ShipmentUpdated(\r\n            productId,\r\n            rawProductDetails[productId].shipper,\r\n            receiver,\r\n            1,\r\n            uint256(PackageStatus.Delivered)\r\n        );\r\n    }\r\n\r\n    function getUsersCount() public view returns (uint256) {\r\n        return users.length;\r\n    }\r\n\r\n    function getUserByIndex(uint256 index) public view returns (UserInfo memory) {\r\n        require(index < users.length, \"Index out of bounds.\");\r\n        return userDetails[users[index]];\r\n    }\r\n\r\n    function getRawProductsBySupplier(address supplier) public view returns (bytes32[] memory) {\r\n        return supplierRawProducts[supplier];\r\n    }\r\n\r\n    function getRawProductDetails(bytes32 productId)\r\n        public\r\n        view\r\n        returns (RawProductInfo memory)\r\n    {\r\n        return rawProductDetails[productId];\r\n    }\r\n}\r\n",
  "sourcePath": "C:\\Users\\User\\OneDrive\\Desktop\\blockchain\\Blockchain_SupplyChain\\contracts\\SupplyChain_old.sol",
  "compiler": {
    "name": "solc",
    "version": "0.8.0+commit.c7dfd78e.Emscripten.clang"
  },
  "schemaVersion": "3.4.16",
  "updatedAt": "2024-12-08T16:39:19.333Z",
  "devdoc": {
    "kind": "dev",
    "methods": {},
    "version": 1
  },
  "userdoc": {
    "kind": "user",
    "methods": {},
    "version": 1
  }
}