{
  "contractName": "SupplyChain",
  "abi": [
    {
      "inputs": [],
      "stateMutability": "nonpayable",
      "type": "constructor"
    },
    {
      "anonymous": false,
      "inputs": [
        {
          "indexed": true,
          "internalType": "address",
          "name": "productId",
          "type": "address"
        },
        {
          "indexed": true,
          "internalType": "address",
          "name": "supplier",
          "type": "address"
        },
        {
          "indexed": false,
          "internalType": "address",
          "name": "shipper",
          "type": "address"
        },
        {
          "indexed": true,
          "internalType": "address",
          "name": "receiver",
          "type": "address"
        }
      ],
      "name": "RawSupplyInitiated",
      "type": "event"
    },
    {
      "anonymous": false,
      "inputs": [
        {
          "indexed": true,
          "internalType": "address",
          "name": "ethAddress",
          "type": "address"
        },
        {
          "indexed": false,
          "internalType": "bytes32",
          "name": "name",
          "type": "bytes32"
        }
      ],
      "name": "UserRegistered",
      "type": "event"
    },
    {
      "anonymous": false,
      "inputs": [
        {
          "indexed": true,
          "internalType": "address",
          "name": "ethAddress",
          "type": "address"
        },
        {
          "indexed": false,
          "internalType": "bytes32",
          "name": "name",
          "type": "bytes32"
        },
        {
          "indexed": false,
          "internalType": "uint256",
          "name": "role",
          "type": "uint256"
        }
      ],
      "name": "UserRoleReassigned",
      "type": "event"
    },
    {
      "anonymous": false,
      "inputs": [
        {
          "indexed": true,
          "internalType": "address",
          "name": "ethAddress",
          "type": "address"
        },
        {
          "indexed": false,
          "internalType": "bytes32",
          "name": "name",
          "type": "bytes32"
        },
        {
          "indexed": false,
          "internalType": "uint256",
          "name": "role",
          "type": "uint256"
        }
      ],
      "name": "UserRoleRevoked",
      "type": "event"
    },
    {
      "inputs": [],
      "name": "owner",
      "outputs": [
        {
          "internalType": "address",
          "name": "",
          "type": "address"
        }
      ],
      "stateMutability": "view",
      "type": "function",
      "constant": true
    },
    {
      "inputs": [
        {
          "internalType": "address",
          "name": "ethAddress",
          "type": "address"
        },
        {
          "internalType": "bytes32",
          "name": "name",
          "type": "bytes32"
        },
        {
          "internalType": "bytes32",
          "name": "location",
          "type": "bytes32"
        },
        {
          "internalType": "uint256",
          "name": "role",
          "type": "uint256"
        }
      ],
      "name": "registerUser",
      "outputs": [],
      "stateMutability": "nonpayable",
      "type": "function"
    },
    {
      "inputs": [
        {
          "internalType": "address",
          "name": "userAddress",
          "type": "address"
        }
      ],
      "name": "revokeRole",
      "outputs": [],
      "stateMutability": "nonpayable",
      "type": "function"
    },
    {
      "inputs": [
        {
          "internalType": "address",
          "name": "userAddress",
          "type": "address"
        },
        {
          "internalType": "uint256",
          "name": "role",
          "type": "uint256"
        }
      ],
      "name": "reassignRole",
      "outputs": [],
      "stateMutability": "nonpayable",
      "type": "function"
    },
    {
      "inputs": [
        {
          "internalType": "address",
          "name": "user",
          "type": "address"
        }
      ],
      "name": "getUserInfo",
      "outputs": [
        {
          "internalType": "bytes32",
          "name": "name",
          "type": "bytes32"
        },
        {
          "internalType": "bytes32",
          "name": "location",
          "type": "bytes32"
        },
        {
          "internalType": "address",
          "name": "ethAddress",
          "type": "address"
        },
        {
          "internalType": "enum SupplyChain.Roles",
          "name": "role",
          "type": "uint8"
        }
      ],
      "stateMutability": "view",
      "type": "function",
      "constant": true
    },
    {
      "inputs": [],
      "name": "getUsersCount",
      "outputs": [
        {
          "internalType": "uint256",
          "name": "",
          "type": "uint256"
        }
      ],
      "stateMutability": "view",
      "type": "function",
      "constant": true
    },
    {
      "inputs": [
        {
          "internalType": "uint256",
          "name": "index",
          "type": "uint256"
        }
      ],
      "name": "getUserByIndex",
      "outputs": [
        {
          "internalType": "bytes32",
          "name": "name",
          "type": "bytes32"
        },
        {
          "internalType": "bytes32",
          "name": "location",
          "type": "bytes32"
        },
        {
          "internalType": "address",
          "name": "ethAddress",
          "type": "address"
        },
        {
          "internalType": "enum SupplyChain.Roles",
          "name": "role",
          "type": "uint8"
        }
      ],
      "stateMutability": "view",
      "type": "function",
      "constant": true
    },
    {
      "inputs": [
        {
          "internalType": "bytes32",
          "name": "description",
          "type": "bytes32"
        },
        {
          "internalType": "bytes32",
          "name": "farmerName",
          "type": "bytes32"
        },
        {
          "internalType": "bytes32",
          "name": "location",
          "type": "bytes32"
        },
        {
          "internalType": "uint256",
          "name": "quantity",
          "type": "uint256"
        },
        {
          "internalType": "address",
          "name": "shipper",
          "type": "address"
        },
        {
          "internalType": "address",
          "name": "receiver",
          "type": "address"
        }
      ],
      "name": "createRawPackage",
      "outputs": [],
      "stateMutability": "nonpayable",
      "type": "function"
    },
    {
      "inputs": [],
      "name": "getPackagesCountS",
      "outputs": [
        {
          "internalType": "uint256",
          "name": "",
          "type": "uint256"
        }
      ],
      "stateMutability": "view",
      "type": "function",
      "constant": true
    },
    {
      "inputs": [
        {
          "internalType": "uint256",
          "name": "index",
          "type": "uint256"
        }
      ],
      "name": "getPackageIdByIndexS",
      "outputs": [
        {
          "internalType": "address",
          "name": "",
          "type": "address"
        }
      ],
      "stateMutability": "view",
      "type": "function",
      "constant": true
    },
    {
      "inputs": [
        {
          "internalType": "address",
          "name": "packageId",
          "type": "address"
        },
        {
          "internalType": "uint256",
          "name": "transporterType",
          "type": "uint256"
        },
        {
          "internalType": "address",
          "name": "contractId",
          "type": "address"
        }
      ],
      "name": "loadConsignment",
      "outputs": [],
      "stateMutability": "nonpayable",
      "type": "function"
    },
    {
      "inputs": [
        {
          "internalType": "address",
          "name": "packageId",
          "type": "address"
        }
      ],
      "name": "rawPackageReceived",
      "outputs": [],
      "stateMutability": "nonpayable",
      "type": "function"
    },
    {
      "inputs": [],
      "name": "getPackagesCountM",
      "outputs": [
        {
          "internalType": "uint256",
          "name": "",
          "type": "uint256"
        }
      ],
      "stateMutability": "view",
      "type": "function",
      "constant": true
    },
    {
      "inputs": [
        {
          "internalType": "uint256",
          "name": "index",
          "type": "uint256"
        }
      ],
      "name": "getPackageIdByIndexM",
      "outputs": [
        {
          "internalType": "address",
          "name": "",
          "type": "address"
        }
      ],
      "stateMutability": "view",
      "type": "function",
      "constant": true
    }
  ],
  "bytecode": "0x608060405234801561001057600080fd5b50600080546001600160a01b031916331790556118ff806100326000396000f3fe60806040523480156200001157600080fd5b5060043610620001005760003560e01c8063923f645a1162000099578063a93c7abb116200006f578063a93c7abb14620001f2578063bc8c5b1c1462000209578063d40da9671462000220578063ff5d32fe14620002375762000100565b8063923f645a14620001c75780639fb3a90314620001de578063a4a1e26314620001e85762000100565b80635e33cea411620000db5780635e33cea414620001665780636386c1c7146200017d57806380e52e3f14620001a65780638da5cb5b14620001bd5762000100565b80632becfd0414620001055780634fa831de1462000127578063541ee5091462000140575b600080fd5b6200010f6200024e565b6040516200011e91906200106d565b60405180910390f35b6200013e6200013836600462000f4b565b620002cc565b005b620001576200015136600462000fe7565b620004a6565b6040516200011e919062001000565b620001576200017736600462000fe7565b62000554565b620001946200018e36600462000ec0565b620005e5565b6040516200011e949392919062001076565b6200013e620001b736600462000ec0565b620006a3565b62000157620007eb565b6200013e620001d836600462000ee4565b620007fa565b6200010f62000a0c565b6200010f62000a81565b6200013e6200020336600462000f1f565b62000a87565b6200013e6200021a36600462000ec0565b62000c16565b6200013e6200023136600462000f8b565b62000d17565b620001946200024836600462000fe7565b62000e44565b6000600133600090815260016020526040902060020154600160a01b900460ff1660078111156200028f57634e487b7160e01b600052602160045260246000fd5b14620002b85760405162461bcd60e51b8152600401620002af90620010cf565b60405180910390fd5b503360009081526003602052604090205490565b600233600090815260016020526040902060020154600160a01b900460ff1660078111156200030b57634e487b7160e01b600052602160045260246000fd5b146200032b5760405162461bcd60e51b8152600401620002af90620011e4565b600082116200034e5760405162461bcd60e51b8152600401620002af90620011a3565b8160011415620003c05760405163638e9a3d60e01b81526001600160a01b0384169063638e9a3d906200038690339060040162001000565b600060405180830381600087803b158015620003a157600080fd5b505af1158015620003b6573d6000803e3d6000fd5b50505050620004a1565b8160021415620003f85760405163638e9a3d60e01b81526001600160a01b0384169063638e9a3d906200038690339060040162001000565b81600314156200043257604051630887851b60e31b81526001600160a01b0382169063443c28d89062000386908690339060040162001014565b8160041415620004a15760405163d39ff0e760e01b81526001600160a01b0382169063d39ff0e7906200046c908690339060040162001014565b600060405180830381600087803b1580156200048757600080fd5b505af11580156200049c573d6000803e3d6000fd5b505050505b505050565b6000600333600090815260016020526040902060020154600160a01b900460ff166007811115620004e757634e487b7160e01b600052602160045260246000fd5b14620005075760405162461bcd60e51b8152600401620002af9062001158565b3360009081526004602052604090208054839081106200053757634e487b7160e01b600052603260045260246000fd5b6000918252602090912001546001600160a01b031690505b919050565b6000600133600090815260016020526040902060020154600160a01b900460ff1660078111156200059557634e487b7160e01b600052602160045260246000fd5b14620005b55760405162461bcd60e51b8152600401620002af90620010cf565b3360009081526003602052604090208054839081106200053757634e487b7160e01b600052603260045260246000fd5b6001600160a01b038181166000908152600160208181526040808420815160808101835281548152938101549284019290925260028201549485169083015291928392839283928392906060830190600160a01b900460ff1660078111156200065e57634e487b7160e01b600052602160045260246000fd5b60078111156200067e57634e487b7160e01b600052602160045260246000fd5b9052508051602082015160408301516060909301519199909850919650945092505050565b6000546001600160a01b03163314620006d05760405162461bcd60e51b8152600401620002af9062001116565b60006001600160a01b038216600090815260016020526040902060020154600160a01b900460ff1660078111156200071857634e487b7160e01b600052602160045260246000fd5b1415620007395760405162461bcd60e51b8152600401620002af9062001265565b6001600160a01b038116600081815260016020526040902080546002909101547fb5f04dfc1ccfefb366c4dc7a23670362462e0a415afb89d8cba1fb657e264c969190600160a01b900460ff166007811115620007a657634e487b7160e01b600052602160045260246000fd5b604051620007b6929190620010c1565b60405180910390a26001600160a01b03166000908152600160205260409020600201805460ff60a01b1916600760a01b179055565b6000546001600160a01b031681565b6000546001600160a01b03163314620008275760405162461bcd60e51b8152600401620002af9062001116565b60006001600160a01b038516600090815260016020526040902060020154600160a01b900460ff1660078111156200086f57634e487b7160e01b600052602160045260246000fd5b146200088f5760405162461bcd60e51b8152600401620002af906200122e565b6040518060800160405280848152602001838152602001856001600160a01b03168152602001826007811115620008d657634e487b7160e01b600052602160045260246000fd5b6007811115620008f657634e487b7160e01b600052602160045260246000fd5b90526001600160a01b03858116600090815260016020818152604092839020855181559085015191810191909155908301516002820180546001600160a01b0319169190931617808355606084015191929060ff60a01b1916600160a01b8360078111156200097557634e487b7160e01b600052602160045260246000fd5b021790555050600280546001810182556000919091527f405787fa12a823e0f2b7631cc41b3ba8828b3321ca811111fa75cd3aa3bb5ace0180546001600160a01b0319166001600160a01b0387169081179091556040519091507f4c5d15f5779ae1ecd7d55bd3283d898e29c35743d172bd7b83a16e17bc0afe2a90620009fe9086906200106d565b60405180910390a250505050565b6000600333600090815260016020526040902060020154600160a01b900460ff16600781111562000a4d57634e487b7160e01b600052602160045260246000fd5b1462000a6d5760405162461bcd60e51b8152600401620002af9062001158565b503360009081526004602052604090205490565b60025490565b6000546001600160a01b0316331462000ab45760405162461bcd60e51b8152600401620002af9062001116565b60006001600160a01b038316600090815260016020526040902060020154600160a01b900460ff16600781111562000afc57634e487b7160e01b600052602160045260246000fd5b141562000b1d5760405162461bcd60e51b8152600401620002af9062001265565b80600781111562000b3e57634e487b7160e01b600052602160045260246000fd5b6001600160a01b0383166000908152600160205260409020600201805460ff60a01b1916600160a01b83600781111562000b8857634e487b7160e01b600052602160045260246000fd5b02179055506001600160a01b038216600081815260016020526040902080546002909101547fec59c15b3cfa29a607747a7adae7b9e38149cf67823018978dfd5ec060a1a5269190600160a01b900460ff16600781111562000bfa57634e487b7160e01b600052602160045260246000fd5b60405162000c0a929190620010c1565b60405180910390a25050565b600333600090815260016020526040902060020154600160a01b900460ff16600781111562000c5557634e487b7160e01b600052602160045260246000fd5b1462000c755760405162461bcd60e51b8152600401620002af9062001158565b604051630a57332d60e31b81526001600160a01b038216906352b999689062000ca390339060040162001000565b600060405180830381600087803b15801562000cbe57600080fd5b505af115801562000cd3573d6000803e3d6000fd5b50503360009081526004602090815260408220805460018101825590835291200180546001600160a01b0319166001600160a01b0394909416939093179092555050565b600133600090815260016020526040902060020154600160a01b900460ff16600781111562000d5657634e487b7160e01b600052602160045260246000fd5b1462000d765760405162461bcd60e51b8152600401620002af90620010cf565b60003387878787878760405162000d8d9062000e9a565b62000d9f97969594939291906200102e565b604051809103906000f08015801562000dbc573d6000803e3d6000fd5b503360008181526003602090815260408083208054600181018255908452919092200180546001600160a01b0319166001600160a01b0385811691821790925591519394508516927fb5bb651cc60d9e3637468d9d18eaf5764aea4e937d903fe8a021dfc66acc290a9062000e3390889062001000565b60405180910390a450505050505050565b60008060008062000e8b6002868154811062000e7057634e487b7160e01b600052603260045260246000fd5b6000918252602090912001546001600160a01b0316620005e5565b93509350935093509193509193565b610636806200129483390190565b80356001600160a01b03811681146200054f57600080fd5b60006020828403121562000ed2578081fd5b62000edd8262000ea8565b9392505050565b6000806000806080858703121562000efa578283fd5b62000f058562000ea8565b966020860135965060408601359560600135945092505050565b6000806040838503121562000f32578182fd5b62000f3d8362000ea8565b946020939093013593505050565b60008060006060848603121562000f60578283fd5b62000f6b8462000ea8565b92506020840135915062000f826040850162000ea8565b90509250925092565b60008060008060008060c0878903121562000fa4578182fd5b8635955060208701359450604087013593506060870135925062000fcb6080880162000ea8565b915062000fdb60a0880162000ea8565b90509295509295509295565b60006020828403121562000ff9578081fd5b5035919050565b6001600160a01b0391909116815260200190565b6001600160a01b0392831681529116602082015260400190565b6001600160a01b0397881681526020810196909652604086019490945260608501929092526080840152831660a083015290911660c082015260e00190565b90815260200190565b848152602081018490526001600160a01b03831660408201526080810160088310620010b257634e487b7160e01b600052602160045260246000fd5b82606083015295945050505050565b918252602082015260400190565b60208082526027908201527f4f6e6c79206120737570706c6965722063616e2063616c6c20746869732066756040820152663731ba34b7b71760c91b606082015260800190565b60208082526022908201527f4f6e6c79206f776e65722063616e2063616c6c20746869732066756e6374696f604082015261371760f11b606082015260800190565b6020808252602b908201527f4f6e6c792061206d616e7566616374757265722063616e2063616c6c2074686960408201526a3990333ab731ba34b7b71760a91b606082015260800190565b60208082526021908201527f5472616e73706f727465722074797065206d75737420626520646566696e65646040820152601760f91b606082015260800190565b6020808252602a908201527f4f6e6c792061207472616e73706f727465722063616e2063616c6c207468697360408201526910333ab731ba34b7b71760b11b606082015260800190565b60208082526018908201527f5573657220616c726561647920726567697374657265642e0000000000000000604082015260600190565b6020808252601490820152732ab9b2b9103737ba103932b3b4b9ba32b932b21760611b60408201526060019056fe608060405234801561001057600080fd5b5060405161063638038061063683398101604081905261002f91610102565b600080546001600160a01b039889166001600160a01b031991821681178355604080516101208101825230808252602082018c90529181018a90526060810189905260808101889052958b1660a0870181905294909a1660c0860181905260e08601829052610100909501929092526001989098556002969096556003949094556004929092556005556006805485169092179091556007805484169091179055600880549092161760ff60a01b1916905561016b565b80516001600160a01b03811681146100fd57600080fd5b919050565b600080600080600080600060e0888a03121561011c578283fd5b610125886100e6565b96506020880151955060408801519450606088015193506080880151925061014f60a089016100e6565b915061015d60c089016100e6565b905092959891949750929550565b6104bc8061017a6000396000f3fe608060405234801561001057600080fd5b506004361061004c5760003560e01c806352b9996814610051578063638e9a3d146100665780638da5cb5b14610079578063aaac971814610097575b600080fd5b61006461005f3660046102ab565b6100b4565b005b6100646100743660046102ab565b6101d2565b610081610264565b60405161008e91906102d9565b60405180910390f35b61009f610273565b60405161008e999897969594939291906102ed565b6007546001600160a01b038281169116146100ea5760405162461bcd60e51b81526004016100e190610371565b60405180910390fd5b6001600854600160a01b900460ff16600281111561011857634e487b7160e01b600052602160045260246000fd5b146101355760405162461bcd60e51b81526004016100e19061040e565b600880546002919060ff60a01b1916600160a01b835b02179055506007546006546008546001600160a01b03928316929091169030907ff3ef229a52006ad83a5453cd9c02c79c841ccfdb65ad3f748788ab0ecf66296c90600190600160a01b900460ff1660028111156101b957634e487b7160e01b600052602160045260246000fd5b6040516101c7929190610363565b60405180910390a450565b6006546001600160a01b038281169116146101ff5760405162461bcd60e51b81526004016100e1906103bf565b6000600854600160a01b900460ff16600281111561022d57634e487b7160e01b600052602160045260246000fd5b1461024a5760405162461bcd60e51b81526004016100e190610445565b600880546001919060ff60a01b1916600160a01b8361014b565b6000546001600160a01b031681565b6001546002546003546004546005546006546007546008546001600160a01b039283169291821691811690600160a01b900460ff1689565b6000602082840312156102bc578081fd5b81356001600160a01b03811681146102d2578182fd5b9392505050565b6001600160a01b0391909116815260200190565b898152602081018990526040810188905260608101879052608081018690526001600160a01b0385811660a083015284811660c0830152831660e082015261012081016003831061034e57634e487b7160e01b600052602160045260246000fd5b826101008301529a9950505050505050505050565b918252602082015260400190565b6020808252602e908201527f4f6e6c7920746865206d616e7566616374757265722063616e2072656365697660408201526d32903a3432903830b1b5b0b3b29760911b606082015260800190565b6020808252602f908201527f4f6e6c79207468652061737369676e656420736869707065722063616e20706960408201526e31b5903a3432903830b1b5b0b3b29760891b606082015260800190565b6020808252601d908201527f5061636b616765206d757374206265207069636b65642066697273742e000000604082015260600190565b60208082526021908201527f5061636b616765206d7573742062652061742063726561746f722073746167656040820152601760f91b60608201526080019056fea26469706673582212201f3d7c5f6f6f18ea1f2c0132a7900c4c590aad0013046fc4a93168b7d4b6f48264736f6c63430008000033a26469706673582212207f71a3c0c70d7d7f6e19311beb302b1d25f0788df64b97ff831226867122749364736f6c63430008000033",
  "immutableReferences": {},
  "source": "// SPDX-License-Identifier: MIT\r\npragma solidity ^0.8.0;\r\n\r\nimport \"./RawMaterials.sol\";\r\nimport \"./Madicine.sol\";\r\nimport \"./MadicineW_D.sol\";\r\nimport \"./MadicineD_P.sol\";\r\n\r\n/// @title Blockchain: Pharmaceutical SupplyChain\r\n/// @dev Smart contract for managing the supply chain of pharmaceutical products\r\ncontract SupplyChain {\r\n    /// @notice Owner of the contract\r\n    address public owner;\r\n\r\n    /// @dev Initiate SupplyChain Contract\r\n    constructor() {\r\n        owner = msg.sender;\r\n    }\r\n\r\n    /********************************************** Owner Section *********************************************/\r\n    /// @dev Restricts access to the contract owner\r\n    modifier onlyOwner() {\r\n        require(msg.sender == owner, \"Only owner can call this function.\");\r\n        _;\r\n    }\r\n\r\n    /// @notice Roles in the supply chain\r\n    enum Roles {\r\n        NoRole,\r\n        Supplier,\r\n        Transporter,\r\n        Manufacturer,\r\n        Wholesaler,\r\n        Distributor,\r\n        Pharma,\r\n        Revoke\r\n    }\r\n\r\n    /// @dev Events for user management\r\n    event UserRegistered(address indexed ethAddress, bytes32 name);\r\n    event UserRoleRevoked(address indexed ethAddress, bytes32 name, uint256 role);\r\n    event UserRoleReassigned(address indexed ethAddress, bytes32 name, uint256 role);\r\n\r\n    /// @notice User information structure\r\n    struct UserInfo {\r\n        bytes32 name;\r\n        bytes32 location;\r\n        address ethAddress;\r\n        Roles role;\r\n    }\r\n\r\n    mapping(address => UserInfo) private userDetails;\r\n    address[] private users;\r\n\r\n    /// @dev Register a new user by the owner\r\n    function registerUser(\r\n        address ethAddress,\r\n        bytes32 name,\r\n        bytes32 location,\r\n        uint256 role\r\n    ) public onlyOwner {\r\n        require(\r\n            userDetails[ethAddress].role == Roles.NoRole,\r\n            \"User already registered.\"\r\n        );\r\n        userDetails[ethAddress] = UserInfo({\r\n            name: name,\r\n            location: location,\r\n            ethAddress: ethAddress,\r\n            role: Roles(role)\r\n        });\r\n        users.push(ethAddress);\r\n        emit UserRegistered(ethAddress, name);\r\n    }\r\n\r\n    /// @dev Revoke a user's role\r\n    function revokeRole(address userAddress) public onlyOwner {\r\n        require(\r\n            userDetails[userAddress].role != Roles.NoRole,\r\n            \"User not registered.\"\r\n        );\r\n        emit UserRoleRevoked(\r\n            userAddress,\r\n            userDetails[userAddress].name,\r\n            uint256(userDetails[userAddress].role)\r\n        );\r\n        userDetails[userAddress].role = Roles.Revoke;\r\n    }\r\n\r\n    /// @dev Reassign a user's role\r\n    function reassignRole(address userAddress, uint256 role) public onlyOwner {\r\n        require(\r\n            userDetails[userAddress].role != Roles.NoRole,\r\n            \"User not registered.\"\r\n        );\r\n        userDetails[userAddress].role = Roles(role);\r\n        emit UserRoleReassigned(\r\n            userAddress,\r\n            userDetails[userAddress].name,\r\n            uint256(userDetails[userAddress].role)\r\n        );\r\n    }\r\n\r\n    /// @dev Get user information\r\n    function getUserInfo(address user)\r\n        public\r\n        view\r\n        returns (\r\n            bytes32 name,\r\n            bytes32 location,\r\n            address ethAddress,\r\n            Roles role\r\n        )\r\n    {\r\n        UserInfo memory info = userDetails[user];\r\n        return (info.name, info.location, info.ethAddress, info.role);\r\n    }\r\n\r\n    /// @dev Get the total number of registered users\r\n    function getUsersCount() public view returns (uint256) {\r\n        return users.length;\r\n    }\r\n\r\n    /// @dev Get a user by index\r\n    function getUserByIndex(uint256 index)\r\n        public\r\n        view\r\n        returns (\r\n            bytes32 name,\r\n            bytes32 location,\r\n            address ethAddress,\r\n            Roles role\r\n        )\r\n    {\r\n        return getUserInfo(users[index]);\r\n    }\r\n\r\n    /********************************************** Supplier Section ******************************************/\r\n    mapping(address => address[]) private supplierRawProducts;\r\n\r\n    event RawSupplyInitiated(\r\n        address indexed productId,\r\n        address indexed supplier,\r\n        address shipper,\r\n        address indexed receiver\r\n    );\r\n\r\n    /// @dev Create a new raw materials package\r\n    function createRawPackage(\r\n        bytes32 description,\r\n        bytes32 farmerName,\r\n        bytes32 location,\r\n        uint256 quantity,\r\n        address shipper,\r\n        address receiver\r\n    ) public {\r\n        require(\r\n            userDetails[msg.sender].role == Roles.Supplier,\r\n            \"Only a supplier can call this function.\"\r\n        );\r\n\r\n        RawMaterials rawData = new RawMaterials(\r\n            msg.sender,\r\n            description,\r\n            farmerName,\r\n            location,\r\n            quantity,\r\n            shipper,\r\n            receiver\r\n        );\r\n\r\n        supplierRawProducts[msg.sender].push(address(rawData));\r\n        emit RawSupplyInitiated(address(rawData), msg.sender, shipper, receiver);\r\n    }\r\n\r\n    /// @dev Get the number of raw packages created by a supplier\r\n    function getPackagesCountS() public view returns (uint256) {\r\n        require(\r\n            userDetails[msg.sender].role == Roles.Supplier,\r\n            \"Only a supplier can call this function.\"\r\n        );\r\n        return supplierRawProducts[msg.sender].length;\r\n    }\r\n\r\n    /// @dev Get the package ID by index\r\n    function getPackageIdByIndexS(uint256 index)\r\n        public\r\n        view\r\n        returns (address)\r\n    {\r\n        require(\r\n            userDetails[msg.sender].role == Roles.Supplier,\r\n            \"Only a supplier can call this function.\"\r\n        );\r\n        return supplierRawProducts[msg.sender][index];\r\n    }\r\n\r\n    /********************************************** Transporter Section ******************************************/\r\n    function loadConsignment(\r\n        address packageId,\r\n        uint256 transporterType,\r\n        address contractId\r\n    ) public {\r\n        require(\r\n            userDetails[msg.sender].role == Roles.Transporter,\r\n            \"Only a transporter can call this function.\"\r\n        );\r\n        require(transporterType > 0, \"Transporter type must be defined.\");\r\n\r\n        if (transporterType == 1) {\r\n            RawMaterials(packageId).pickPackage(msg.sender);\r\n        } else if (transporterType == 2) {\r\n            Madicine(packageId).pickPackage(msg.sender);\r\n        } else if (transporterType == 3) {\r\n            MadicineW_D(contractId).pickWD(packageId, msg.sender);\r\n        } else if (transporterType == 4) {\r\n            MadicineD_P(contractId).pickDP(packageId, msg.sender);\r\n        }\r\n    }\r\n\r\n    /********************************************** Manufacturer Section ******************************************/\r\n    mapping(address => address[]) private rawPackagesAtManufacturer;\r\n\r\n    function rawPackageReceived(address packageId) public {\r\n        require(\r\n            userDetails[msg.sender].role == Roles.Manufacturer,\r\n            \"Only a manufacturer can call this function.\"\r\n        );\r\n\r\n        RawMaterials(packageId).receivedPackage(msg.sender);\r\n        rawPackagesAtManufacturer[msg.sender].push(packageId);\r\n    }\r\n\r\n    function getPackagesCountM() public view returns (uint256) {\r\n        require(\r\n            userDetails[msg.sender].role == Roles.Manufacturer,\r\n            \"Only a manufacturer can call this function.\"\r\n        );\r\n        return rawPackagesAtManufacturer[msg.sender].length;\r\n    }\r\n\r\n    function getPackageIdByIndexM(uint256 index)\r\n        public\r\n        view\r\n        returns (address)\r\n    {\r\n        require(\r\n            userDetails[msg.sender].role == Roles.Manufacturer,\r\n            \"Only a manufacturer can call this function.\"\r\n        );\r\n        return rawPackagesAtManufacturer[msg.sender][index];\r\n    }\r\n}\r\n",
  "sourcePath": "C:\\Users\\User\\OneDrive\\Desktop\\blockchain\\Blockchain_SupplyChain\\contracts\\SupplyChain.sol",
  "compiler": {
    "name": "solc",
    "version": "0.8.0+commit.c7dfd78e.Emscripten.clang"
  },
  "schemaVersion": "3.4.16",
  "updatedAt": "2024-12-08T16:39:22.179Z",
  "networkType": "ethereum",
  "devdoc": {
    "details": "Smart contract for managing the supply chain of pharmaceutical products",
    "events": {
      "UserRegistered(address,bytes32)": {
        "details": "Events for user management"
      }
    },
    "kind": "dev",
    "methods": {
      "constructor": {
        "details": "Initiate SupplyChain Contract"
      },
      "createRawPackage(bytes32,bytes32,bytes32,uint256,address,address)": {
        "details": "Create a new raw materials package"
      },
      "getPackageIdByIndexS(uint256)": {
        "details": "Get the package ID by index"
      },
      "getPackagesCountS()": {
        "details": "Get the number of raw packages created by a supplier"
      },
      "getUserByIndex(uint256)": {
        "details": "Get a user by index"
      },
      "getUserInfo(address)": {
        "details": "Get user information"
      },
      "getUsersCount()": {
        "details": "Get the total number of registered users"
      },
      "reassignRole(address,uint256)": {
        "details": "Reassign a user's role"
      },
      "registerUser(address,bytes32,bytes32,uint256)": {
        "details": "Register a new user by the owner"
      },
      "revokeRole(address)": {
        "details": "Revoke a user's role"
      }
    },
    "title": "Blockchain: Pharmaceutical SupplyChain",
    "version": 1
  },
  "userdoc": {
    "kind": "user",
    "methods": {
      "owner()": {
        "notice": "Owner of the contract"
      }
    },
    "version": 1
  }
}