{
  "contractName": "Madicine",
  "abi": [
    {
      "inputs": [
        {
          "internalType": "address",
          "name": "_manufacturer",
          "type": "address"
        },
        {
          "internalType": "address",
          "name": "_shipper",
          "type": "address"
        },
        {
          "internalType": "address",
          "name": "_receiver",
          "type": "address"
        },
        {
          "internalType": "uint256",
          "name": "_receiverType",
          "type": "uint256"
        }
      ],
      "stateMutability": "nonpayable",
      "type": "constructor"
    },
    {
      "inputs": [],
      "name": "batch",
      "outputs": [
        {
          "internalType": "address",
          "name": "manufacturer",
          "type": "address"
        },
        {
          "internalType": "address",
          "name": "shipper",
          "type": "address"
        },
        {
          "internalType": "address",
          "name": "wholesaler",
          "type": "address"
        },
        {
          "internalType": "address",
          "name": "distributor",
          "type": "address"
        },
        {
          "internalType": "address",
          "name": "pharma",
          "type": "address"
        },
        {
          "internalType": "enum Madicine.MadicineStatus",
          "name": "status",
          "type": "uint8"
        }
      ],
      "stateMutability": "view",
      "type": "function"
    },
    {
      "inputs": [],
      "name": "owner",
      "outputs": [
        {
          "internalType": "address",
          "name": "",
          "type": "address"
        }
      ],
      "stateMutability": "view",
      "type": "function"
    },
    {
      "inputs": [
        {
          "internalType": "address",
          "name": "_shipper",
          "type": "address"
        }
      ],
      "name": "pickPackage",
      "outputs": [],
      "stateMutability": "nonpayable",
      "type": "function"
    },
    {
      "inputs": [
        {
          "internalType": "address",
          "name": "_receiver",
          "type": "address"
        },
        {
          "internalType": "address",
          "name": "_sender",
          "type": "address"
        }
      ],
      "name": "sendWD",
      "outputs": [],
      "stateMutability": "nonpayable",
      "type": "function"
    },
    {
      "inputs": [
        {
          "internalType": "address",
          "name": "_receiver",
          "type": "address"
        }
      ],
      "name": "receivedWD",
      "outputs": [],
      "stateMutability": "nonpayable",
      "type": "function"
    },
    {
      "inputs": [
        {
          "internalType": "address",
          "name": "_receiver",
          "type": "address"
        },
        {
          "internalType": "address",
          "name": "_sender",
          "type": "address"
        }
      ],
      "name": "sendDP",
      "outputs": [],
      "stateMutability": "nonpayable",
      "type": "function"
    },
    {
      "inputs": [
        {
          "internalType": "address",
          "name": "_receiver",
          "type": "address"
        }
      ],
      "name": "receiveDP",
      "outputs": [],
      "stateMutability": "nonpayable",
      "type": "function"
    }
  ],
  "bytecode": "0x608060405234801561000f575f80fd5b5060405161079738038061079783398101604081905261002e916100fb565b5f80546001600160a01b038087166001600160a01b03199283168117909355600180548316909317835560028054918716919092161790558190036100a057600380546001600160a01b0319166001600160a01b0384161790556005805460ff60a01b1916600160a01b1790556100d7565b806002036100d757600480546001600160a01b0319166001600160a01b0384161790556005805460ff60a01b1916600360a01b1790555b50505050610143565b80516001600160a01b03811681146100f6575f80fd5b919050565b5f805f806080858703121561010e575f80fd5b610117856100e0565b9350610125602086016100e0565b9250610133604086016100e0565b6060959095015193969295505050565b610647806101505f395ff3fe608060405234801561000f575f80fd5b506004361061007a575f3560e01c8063a19ffd6011610058578063a19ffd60146100d5578063a5f8cc74146100e8578063af713566146100fb578063bd78683514610146575f80fd5b80633cc02fd91461007e578063638e9a3d146100935780638da5cb5b146100a6575b5f80fd5b61009161008c36600461054f565b610159565b005b6100916100a136600461054f565b6101f1565b5f546100b8906001600160a01b031681565b6040516001600160a01b0390911681526020015b60405180910390f35b6100916100e336600461056f565b61033e565b6100916100f636600461054f565b6103f2565b600154600254600354600454600554610134946001600160a01b039081169481169381169281169190811690600160a01b900460ff1686565b6040516100cc969594939291906105b4565b61009161015436600461056f565b61047c565b6004546001600160a01b038281169116146101d35760405162461bcd60e51b815260206004820152602f60248201527f4f6e6c7920746865206469737472696275746f722063616e206d61726b20746860448201526e34b99030b9903932b1b2b4bb32b21760891b60648201526084015b60405180910390fd5b600580546004919060ff60a01b1916600160a01b835b021790555050565b6002546001600160a01b038281169116146102665760405162461bcd60e51b815260206004820152602f60248201527f4f6e6c79207468652061737369676e656420736869707065722063616e20706960448201526e31b5903a3432903830b1b5b0b3b29760891b60648201526084016101ca565b5f600554600160a01b900460ff166006811115610285576102856105a0565b146102e95760405162461bcd60e51b815260206004820152602e60248201527f5061636b616765206d7573742062652061742063726561746f7220737461676560448201526d103a37903132903834b1b5b2b21760911b60648201526084016101ca565b6003546001600160a01b03161561031057506005805460ff60a01b1916600160a01b179055565b6004546001600160a01b03161561033b57600580546003919060ff60a01b1916600160a01b836101e9565b50565b6004546001600160a01b038281169116146103b85760405162461bcd60e51b815260206004820152603460248201527f4f6e6c7920746865206469737472696275746f722063616e2073656e6420746860448201527332903830b1b5b0b3b2903a3790383430b936b09760611b60648201526084016101ca565b600580546001600160a01b0384166001600160a01b031982168117835582916001600160a81b03191617600160a01b825b02179055505050565b6005546001600160a01b038281169116146104625760405162461bcd60e51b815260206004820152602a60248201527f4f6e6c792074686520706861726d612063616e206d61726b2074686973206173604482015269103932b1b2b4bb32b21760b11b60648201526084016101ca565b600580546006919060ff60a01b1916600160a01b836101e9565b6003546001600160a01b038281169116146104ff5760405162461bcd60e51b815260206004820152603c60248201527f4f6e6c79207468652077686f6c6573616c65722063616e2073656e642074686560448201527f207061636b61676520746f20746865206469737472696275746f722e0000000060648201526084016101ca565b600480546001600160a01b0319166001600160a01b038416179055600580546003919060ff60a01b1916600160a01b836103e9565b80356001600160a01b038116811461054a575f80fd5b919050565b5f6020828403121561055f575f80fd5b61056882610534565b9392505050565b5f8060408385031215610580575f80fd5b61058983610534565b915061059760208401610534565b90509250929050565b634e487b7160e01b5f52602160045260245ffd5b6001600160a01b0387811682528681166020830152858116604083015284811660608301528316608082015260c081016007831061060057634e487b7160e01b5f52602160045260245ffd5b8260a083015297965050505050505056fea26469706673582212201e2a68eb6fd95e615bacfaafea4ae0288b76f4d616b8735a558f2c210b059e3364736f6c63430008140033",
  "immutableReferences": {},
  "source": "// SPDX-License-Identifier: MIT\r\npragma solidity ^0.8.0;\r\n\r\ncontract Madicine {\r\n    enum MadicineStatus {\r\n        AtCreator,\r\n        PickedForWholesaler,\r\n        DeliveredToWholesaler,\r\n        PickedForDistributor,\r\n        DeliveredToDistributor,\r\n        PickedForPharma,\r\n        DeliveredToPharma\r\n    }\r\n\r\n    address public owner;\r\n\r\n    struct Batch {\r\n        address manufacturer;\r\n        address shipper;\r\n        address wholesaler;\r\n        address distributor;\r\n        address pharma;\r\n        MadicineStatus status;\r\n    }\r\n\r\n    Batch public batch;\r\n\r\n    constructor(\r\n        address _manufacturer,\r\n        address _shipper,\r\n        address _receiver,\r\n        uint256 _receiverType\r\n    ) {\r\n        owner = _manufacturer;\r\n        batch.manufacturer = _manufacturer;\r\n        batch.shipper = _shipper;\r\n\r\n        if (_receiverType == 1) {\r\n            batch.wholesaler = _receiver;\r\n            batch.status = MadicineStatus.PickedForWholesaler;\r\n        } else if (_receiverType == 2) {\r\n            batch.distributor = _receiver;\r\n            batch.status = MadicineStatus.PickedForDistributor;\r\n        }\r\n    }\r\n\r\n    function pickPackage(address _shipper) public {\r\n        require(_shipper == batch.shipper, \"Only the assigned shipper can pick the package.\");\r\n        require(batch.status == MadicineStatus.AtCreator, \"Package must be at creator stage to be picked.\");\r\n\r\n        if (batch.wholesaler != address(0)) {\r\n            batch.status = MadicineStatus.PickedForWholesaler;\r\n        } else if (batch.distributor != address(0)) {\r\n            batch.status = MadicineStatus.PickedForDistributor;\r\n        }\r\n    }\r\n\r\n    function sendWD(address _receiver, address _sender) public {\r\n        require(_sender == batch.wholesaler, \"Only the wholesaler can send the package to the distributor.\");\r\n        batch.distributor = _receiver;\r\n        batch.status = MadicineStatus.PickedForDistributor;\r\n    }\r\n\r\n    function receivedWD(address _receiver) public {\r\n        require(_receiver == batch.distributor, \"Only the distributor can mark this as received.\");\r\n        batch.status = MadicineStatus.DeliveredToDistributor;\r\n    }\r\n\r\n    function sendDP(address _receiver, address _sender) public {\r\n        require(_sender == batch.distributor, \"Only the distributor can send the package to pharma.\");\r\n        batch.pharma = _receiver;\r\n        batch.status = MadicineStatus.PickedForPharma;\r\n    }\r\n\r\n    function receiveDP(address _receiver) public {\r\n        require(_receiver == batch.pharma, \"Only the pharma can mark this as received.\");\r\n        batch.status = MadicineStatus.DeliveredToPharma;\r\n    }\r\n}\r\n",
  "sourcePath": "C:\\Users\\User\\OneDrive\\Desktop\\blockchain\\Blockchain_SupplyChain\\contracts\\Madicine.sol",
  "compiler": {
    "name": "solc",
    "version": "0.8.20+commit.a1b79de6.Emscripten.clang"
  },
  "schemaVersion": "3.4.16",
  "updatedAt": "2024-12-07T19:15:51.599Z",
  "devdoc": {
    "kind": "dev",
    "methods": {},
    "version": 1
  },
  "userdoc": {
    "kind": "user",
    "methods": {},
    "version": 1
  }
}