{
  "contractName": "MadicineW_D",
  "abi": [
    {
      "inputs": [
        {
          "internalType": "address",
          "name": "_batchId",
          "type": "address"
        },
        {
          "internalType": "address",
          "name": "_sender",
          "type": "address"
        },
        {
          "internalType": "address",
          "name": "_shipper",
          "type": "address"
        },
        {
          "internalType": "address",
          "name": "_receiver",
          "type": "address"
        }
      ],
      "stateMutability": "nonpayable",
      "type": "constructor"
    },
    {
      "inputs": [],
      "name": "owner",
      "outputs": [
        {
          "internalType": "address",
          "name": "",
          "type": "address"
        }
      ],
      "stateMutability": "view",
      "type": "function"
    },
    {
      "inputs": [],
      "name": "package",
      "outputs": [
        {
          "internalType": "address",
          "name": "batchId",
          "type": "address"
        },
        {
          "internalType": "address",
          "name": "sender",
          "type": "address"
        },
        {
          "internalType": "address",
          "name": "shipper",
          "type": "address"
        },
        {
          "internalType": "address",
          "name": "receiver",
          "type": "address"
        },
        {
          "internalType": "enum MadicineW_D.PackageStatus",
          "name": "status",
          "type": "uint8"
        }
      ],
      "stateMutability": "view",
      "type": "function"
    },
    {
      "inputs": [
        {
          "internalType": "address",
          "name": "_batchId",
          "type": "address"
        },
        {
          "internalType": "address",
          "name": "_shipper",
          "type": "address"
        }
      ],
      "name": "pickWD",
      "outputs": [],
      "stateMutability": "nonpayable",
      "type": "function"
    },
    {
      "inputs": [
        {
          "internalType": "address",
          "name": "_batchId",
          "type": "address"
        },
        {
          "internalType": "address",
          "name": "_receiver",
          "type": "address"
        }
      ],
      "name": "receiveWD",
      "outputs": [],
      "stateMutability": "nonpayable",
      "type": "function"
    },
    {
      "inputs": [],
      "name": "getBatchIDStatus",
      "outputs": [
        {
          "internalType": "uint256",
          "name": "",
          "type": "uint256"
        }
      ],
      "stateMutability": "view",
      "type": "function"
    }
  ],
  "bytecode": "0x608060405234801561000f575f80fd5b506040516105e73803806105e783398101604081905261002e916100d7565b5f80546001600160a01b039485166001600160a01b0319918216811783556040805160a081018252978716808952602089018390529587169088018190529390951660608701819052608090960191909152600180548216909317909255600280548316909317909255600380549091169091179055600480546001600160a81b0319169091179055610128565b80516001600160a01b03811681146100d2575f80fd5b919050565b5f805f80608085870312156100ea575f80fd5b6100f3856100bc565b9350610101602086016100bc565b925061010f604086016100bc565b915061011d606086016100bc565b905092959194509250565b6104b2806101355f395ff3fe608060405234801561000f575f80fd5b5060043610610055575f3560e01c8063443c28d8146100595780638da5cb5b1461006e578063aaac97181461009d578063d2f3fcc7146100e1578063d7dcbe3b146100f7575b5f80fd5b61006c6100673660046103e3565b61010a565b005b5f54610080906001600160a01b031681565b6040516001600160a01b0390911681526020015b60405180910390f35b6001546002546003546004546100d0936001600160a01b039081169381169281169190811690600160a01b900460ff1685565b604051610094959493929190610428565b6100e9610275565b604051908152602001610094565b61006c6101053660046103e3565b61029a565b6003546001600160a01b038281169116146101845760405162461bcd60e51b815260206004820152602f60248201527f4f6e6c79207468652061737369676e656420736869707065722063616e20706960448201526e31b5903a3432903830b1b5b0b3b29760891b60648201526084015b60405180910390fd5b5f600454600160a01b900460ff1660028111156101a3576101a3610414565b146101fa5760405162461bcd60e51b815260206004820152602160248201527f5061636b616765206d7573742062652061742063726561746f722073746167656044820152601760f91b606482015260840161017b565b60048054600160a01b60ff60a01b19821617825560025460405163bd78683560e01b81526001600160a01b03928316938101939093528116602483015283169063bd786835906044015b5f604051808303815f87803b15801561025b575f80fd5b505af115801561026d573d5f803e3d5ffd5b505050505050565b6004545f90600160a01b900460ff16600281111561029557610295610414565b905090565b6004546001600160a01b038281169116146103135760405162461bcd60e51b815260206004820152603360248201527f4f6e6c79207468652061737369676e65642072656365697665722063616e207260448201527232b1b2b4bb32903a3432903830b1b5b0b3b29760691b606482015260840161017b565b6001600454600160a01b900460ff16600281111561033357610333610414565b146103805760405162461bcd60e51b815260206004820152601d60248201527f5061636b616765206d757374206265207069636b65642066697273742e000000604482015260640161017b565b600480546002919060ff60a01b1916600160a01b830217905550604051633cc02fd960e01b81526001600160a01b038281166004830152831690633cc02fd990602401610244565b80356001600160a01b03811681146103de575f80fd5b919050565b5f80604083850312156103f4575f80fd5b6103fd836103c8565b915061040b602084016103c8565b90509250929050565b634e487b7160e01b5f52602160045260245ffd5b6001600160a01b038681168252858116602083015284811660408301528316606082015260a081016003831061046c57634e487b7160e01b5f52602160045260245ffd5b826080830152969550505050505056fea2646970667358221220ac07f5db5242f2eea6f2ef2bb1df6d84f1cf999642ad154584db96e368f78da564736f6c63430008140033",
  "immutableReferences": {},
  "source": "// SPDX-License-Identifier: MIT\r\npragma solidity ^0.8.0;\r\n\r\nimport \"./Madicine.sol\";\r\n\r\ncontract MadicineW_D {\r\n    address public owner;\r\n\r\n    enum PackageStatus {\r\n        AtCreator,\r\n        Picked,\r\n        Delivered\r\n    }\r\n\r\n    struct Package {\r\n        address batchId;\r\n        address sender;\r\n        address shipper;\r\n        address receiver;\r\n        PackageStatus status;\r\n    }\r\n\r\n    Package public package;\r\n\r\n    constructor(\r\n        address _batchId,\r\n        address _sender,\r\n        address _shipper,\r\n        address _receiver\r\n    ) {\r\n        owner = _sender;\r\n        package = Package({\r\n            batchId: _batchId,\r\n            sender: _sender,\r\n            shipper: _shipper,\r\n            receiver: _receiver,\r\n            status: PackageStatus.AtCreator\r\n        });\r\n    }\r\n\r\n    function pickWD(address _batchId, address _shipper) public {\r\n        require(\r\n            _shipper == package.shipper,\r\n            \"Only the assigned shipper can pick the package.\"\r\n        );\r\n        require(\r\n            package.status == PackageStatus.AtCreator,\r\n            \"Package must be at creator stage.\"\r\n        );\r\n        package.status = PackageStatus.Picked;\r\n\r\n        Madicine(_batchId).sendWD(package.receiver, package.sender);\r\n    }\r\n\r\n    function receiveWD(address _batchId, address _receiver) public {\r\n        require(\r\n            _receiver == package.receiver,\r\n            \"Only the assigned receiver can receive the package.\"\r\n        );\r\n        require(\r\n            package.status == PackageStatus.Picked,\r\n            \"Package must be picked first.\"\r\n        );\r\n        package.status = PackageStatus.Delivered;\r\n\r\n        Madicine(_batchId).receivedWD(_receiver);\r\n    }\r\n\r\n    function getBatchIDStatus() public view returns (uint256) {\r\n        return uint256(package.status);\r\n    }\r\n}\r\n",
  "sourcePath": "C:\\Users\\User\\OneDrive\\Desktop\\blockchain\\Blockchain_SupplyChain\\contracts\\MadicineW_D.sol",
  "compiler": {
    "name": "solc",
    "version": "0.8.20+commit.a1b79de6.Emscripten.clang"
  },
  "schemaVersion": "3.4.16",
  "updatedAt": "2024-12-07T19:15:51.608Z",
  "devdoc": {
    "kind": "dev",
    "methods": {},
    "version": 1
  },
  "userdoc": {
    "kind": "user",
    "methods": {},
    "version": 1
  }
}