{
  "contractName": "MadicineD_P",
  "abi": [
    {
      "inputs": [
        {
          "internalType": "address",
          "name": "_batchId",
          "type": "address"
        },
        {
          "internalType": "address",
          "name": "_sender",
          "type": "address"
        },
        {
          "internalType": "address",
          "name": "_shipper",
          "type": "address"
        },
        {
          "internalType": "address",
          "name": "_receiver",
          "type": "address"
        }
      ],
      "stateMutability": "nonpayable",
      "type": "constructor"
    },
    {
      "inputs": [],
      "name": "owner",
      "outputs": [
        {
          "internalType": "address",
          "name": "",
          "type": "address"
        }
      ],
      "stateMutability": "view",
      "type": "function"
    },
    {
      "inputs": [],
      "name": "package",
      "outputs": [
        {
          "internalType": "address",
          "name": "batchId",
          "type": "address"
        },
        {
          "internalType": "address",
          "name": "sender",
          "type": "address"
        },
        {
          "internalType": "address",
          "name": "shipper",
          "type": "address"
        },
        {
          "internalType": "address",
          "name": "receiver",
          "type": "address"
        },
        {
          "internalType": "enum MadicineD_P.PackageStatus",
          "name": "status",
          "type": "uint8"
        }
      ],
      "stateMutability": "view",
      "type": "function"
    },
    {
      "inputs": [
        {
          "internalType": "address",
          "name": "_batchId",
          "type": "address"
        },
        {
          "internalType": "address",
          "name": "_shipper",
          "type": "address"
        }
      ],
      "name": "pickDP",
      "outputs": [],
      "stateMutability": "nonpayable",
      "type": "function"
    },
    {
      "inputs": [
        {
          "internalType": "address",
          "name": "_batchId",
          "type": "address"
        },
        {
          "internalType": "address",
          "name": "_receiver",
          "type": "address"
        }
      ],
      "name": "receiveDP",
      "outputs": [],
      "stateMutability": "nonpayable",
      "type": "function"
    },
    {
      "inputs": [],
      "name": "getBatchIDStatus",
      "outputs": [
        {
          "internalType": "uint256",
          "name": "",
          "type": "uint256"
        }
      ],
      "stateMutability": "view",
      "type": "function"
    }
  ],
  "bytecode": "0x608060405234801561000f575f80fd5b5060405161061738038061061783398101604081905261002e916100d7565b5f80546001600160a01b039485166001600160a01b0319918216811783556040805160a081018252978716808952602089018390529587169088018190529390951660608701819052608090960191909152600180548216909317909255600280548316909317909255600380549091169091179055600480546001600160a81b0319169091179055610128565b80516001600160a01b03811681146100d2575f80fd5b919050565b5f805f80608085870312156100ea575f80fd5b6100f3856100bc565b9350610101602086016100bc565b925061010f604086016100bc565b915061011d606086016100bc565b905092959194509250565b6104e2806101355f395ff3fe608060405234801561000f575f80fd5b5060043610610055575f3560e01c806341709e50146100595780638da5cb5b1461006e578063aaac97181461009d578063d2f3fcc7146100e1578063d39ff0e7146100f7575b5f80fd5b61006c610067366004610413565b61010a565b005b5f54610080906001600160a01b031681565b6040516001600160a01b0390911681526020015b60405180910390f35b6001546002546003546004546100d0936001600160a01b039081169381169281169190811690600160a01b900460ff1685565b604051610094959493929190610458565b6100e9610287565b604051908152602001610094565b61006c610105366004610413565b6102ac565b6004546001600160a01b0382811691161461018a5760405162461bcd60e51b815260206004820152603560248201527f4f6e6c7920746865206173736f6369617465642072656365697665722063616e604482015274103932b1b2b4bb32903a3432903830b1b5b0b3b29760591b60648201526084015b60405180910390fd5b6001600454600160a01b900460ff1660028111156101aa576101aa610444565b146102125760405162461bcd60e51b815260206004820152603260248201527f5061636b616765206d757374206265207069636b6564206265666f72652069746044820152711031b0b7103132903232b634bb32b932b21760711b6064820152608401610181565b600480546002919060ff60a01b1916600160a01b83021790555060405163297e331d60e21b81526001600160a01b03828116600483015283169063a5f8cc74906024015b5f604051808303815f87803b15801561026d575f80fd5b505af115801561027f573d5f803e3d5ffd5b505050505050565b6004545f90600160a01b900460ff1660028111156102a7576102a7610444565b905090565b6003546001600160a01b038281169116146103235760405162461bcd60e51b815260206004820152603160248201527f4f6e6c7920746865206173736f63696174656420736869707065722063616e206044820152703834b1b5903a3432903830b1b5b0b3b29760791b6064820152608401610181565b5f600454600160a01b900460ff16600281111561034257610342610444565b146103aa5760405162461bcd60e51b815260206004820152603260248201527f5061636b616765206d75737420626520696e2027417443726561746f722720736044820152713a30ba32903a37903132903834b1b5b2b21760711b6064820152608401610181565b60048054600160a01b60ff60a01b19821617825560025460405163050cffeb60e51b81526001600160a01b03928316938101939093528116602483015283169063a19ffd6090604401610256565b80356001600160a01b038116811461040e575f80fd5b919050565b5f8060408385031215610424575f80fd5b61042d836103f8565b915061043b602084016103f8565b90509250929050565b634e487b7160e01b5f52602160045260245ffd5b6001600160a01b038681168252858116602083015284811660408301528316606082015260a081016003831061049c57634e487b7160e01b5f52602160045260245ffd5b826080830152969550505050505056fea264697066735822122021b98163953c8ba1cc65d715e8f6b892bdac5f8dfa20af03b26d15b61c4b8cf864736f6c63430008140033",
  "immutableReferences": {},
  "source": "// SPDX-License-Identifier: MIT\r\npragma solidity ^0.8.0;\r\n\r\nimport \"./Madicine.sol\";\r\n\r\ncontract MadicineD_P {\r\n    address public owner;\r\n\r\n    enum PackageStatus {\r\n        AtCreator,\r\n        Picked,\r\n        Delivered\r\n    }\r\n\r\n    struct Package {\r\n        address batchId;\r\n        address sender;\r\n        address shipper;\r\n        address receiver;\r\n        PackageStatus status;\r\n    }\r\n\r\n    Package public package;\r\n\r\n    constructor(\r\n        address _batchId,\r\n        address _sender,\r\n        address _shipper,\r\n        address _receiver\r\n    ) {\r\n        owner = _sender;\r\n        package = Package({\r\n            batchId: _batchId,\r\n            sender: _sender,\r\n            shipper: _shipper,\r\n            receiver: _receiver,\r\n            status: PackageStatus.AtCreator\r\n        });\r\n    }\r\n\r\n    function pickDP(address _batchId, address _shipper) public {\r\n        require(\r\n            _shipper == package.shipper,\r\n            \"Only the associated shipper can pick the package.\"\r\n        );\r\n        require(\r\n            package.status == PackageStatus.AtCreator,\r\n            \"Package must be in 'AtCreator' state to be picked.\"\r\n        );\r\n\r\n        package.status = PackageStatus.Picked;\r\n\r\n        Madicine(_batchId).sendDP(\r\n            package.receiver,\r\n            package.sender\r\n        );\r\n    }\r\n\r\n    function receiveDP(address _batchId, address _receiver) public {\r\n        require(\r\n            _receiver == package.receiver,\r\n            \"Only the associated receiver can receive the package.\"\r\n        );\r\n        require(\r\n            package.status == PackageStatus.Picked,\r\n            \"Package must be picked before it can be delivered.\"\r\n        );\r\n\r\n        package.status = PackageStatus.Delivered;\r\n\r\n        Madicine(_batchId).receiveDP(_receiver);\r\n    }\r\n\r\n    function getBatchIDStatus() public view returns (uint256) {\r\n        return uint256(package.status);\r\n    }\r\n}\r\n",
  "sourcePath": "C:\\Users\\User\\OneDrive\\Desktop\\blockchain\\Blockchain_SupplyChain\\contracts\\MadicineD_P.sol",
  "compiler": {
    "name": "solc",
    "version": "0.8.20+commit.a1b79de6.Emscripten.clang"
  },
  "schemaVersion": "3.4.16",
  "updatedAt": "2024-12-07T19:15:51.604Z",
  "devdoc": {
    "kind": "dev",
    "methods": {},
    "version": 1
  },
  "userdoc": {
    "kind": "user",
    "methods": {},
    "version": 1
  }
}