{
  "contractName": "RawMaterials",
  "abi": [
    {
      "inputs": [
        {
          "internalType": "address",
          "name": "_supplier",
          "type": "address"
        },
        {
          "internalType": "bytes32",
          "name": "_description",
          "type": "bytes32"
        },
        {
          "internalType": "bytes32",
          "name": "_farmerName",
          "type": "bytes32"
        },
        {
          "internalType": "bytes32",
          "name": "_location",
          "type": "bytes32"
        },
        {
          "internalType": "uint256",
          "name": "_quantity",
          "type": "uint256"
        },
        {
          "internalType": "address",
          "name": "_shipper",
          "type": "address"
        },
        {
          "internalType": "address",
          "name": "_manufacturer",
          "type": "address"
        }
      ],
      "stateMutability": "nonpayable",
      "type": "constructor"
    },
    {
      "anonymous": false,
      "inputs": [
        {
          "indexed": true,
          "internalType": "address",
          "name": "batchId",
          "type": "address"
        },
        {
          "indexed": true,
          "internalType": "address",
          "name": "shipper",
          "type": "address"
        },
        {
          "indexed": true,
          "internalType": "address",
          "name": "manufacturer",
          "type": "address"
        },
        {
          "indexed": false,
          "internalType": "uint256",
          "name": "transporterType",
          "type": "uint256"
        },
        {
          "indexed": false,
          "internalType": "uint256",
          "name": "status",
          "type": "uint256"
        }
      ],
      "name": "ShipmentUpdate",
      "type": "event"
    },
    {
      "inputs": [],
      "name": "owner",
      "outputs": [
        {
          "internalType": "address",
          "name": "",
          "type": "address"
        }
      ],
      "stateMutability": "view",
      "type": "function"
    },
    {
      "inputs": [],
      "name": "package",
      "outputs": [
        {
          "internalType": "bytes32",
          "name": "productId",
          "type": "bytes32"
        },
        {
          "internalType": "bytes32",
          "name": "description",
          "type": "bytes32"
        },
        {
          "internalType": "bytes32",
          "name": "farmerName",
          "type": "bytes32"
        },
        {
          "internalType": "bytes32",
          "name": "location",
          "type": "bytes32"
        },
        {
          "internalType": "uint256",
          "name": "quantity",
          "type": "uint256"
        },
        {
          "internalType": "address",
          "name": "shipper",
          "type": "address"
        },
        {
          "internalType": "address",
          "name": "manufacturer",
          "type": "address"
        },
        {
          "internalType": "address",
          "name": "supplier",
          "type": "address"
        },
        {
          "internalType": "enum RawMaterials.PackageStatus",
          "name": "status",
          "type": "uint8"
        }
      ],
      "stateMutability": "view",
      "type": "function"
    },
    {
      "inputs": [
        {
          "internalType": "address",
          "name": "_shipper",
          "type": "address"
        }
      ],
      "name": "pickPackage",
      "outputs": [],
      "stateMutability": "nonpayable",
      "type": "function"
    },
    {
      "inputs": [
        {
          "internalType": "address",
          "name": "_manufacturer",
          "type": "address"
        }
      ],
      "name": "receivedPackage",
      "outputs": [],
      "stateMutability": "nonpayable",
      "type": "function"
    }
  ],
  "bytecode": "0x608060405234801561000f575f80fd5b506040516105d53803806105d583398101604081905261002e91610101565b5f80546001600160a01b039889166001600160a01b031991821681178355604080516101208101825230808252602082018c90529181018a90526060810189905260808101889052958b1660a0870181905294909a1660c0860181905260e08601829052610100909501929092526001989098556002969096556003949094556004929092556005556006805485169092179091556007805490931617909155600880546001600160a81b0319169091179055610166565b80516001600160a01b03811681146100fc575f80fd5b919050565b5f805f805f805f60e0888a031215610117575f80fd5b610120886100e6565b96506020880151955060408801519450606088015193506080880151925061014a60a089016100e6565b915061015860c089016100e6565b905092959891949750929550565b610462806101735f395ff3fe608060405234801561000f575f80fd5b506004361061004a575f3560e01c806352b999681461004e578063638e9a3d146100635780638da5cb5b14610076578063aaac9718146100a5575b5f80fd5b61006161005c366004610377565b6100fb565b005b610061610071366004610377565b610272565b5f54610088906001600160a01b031681565b6040516001600160a01b0390911681526020015b60405180910390f35b6001546002546003546004546005546006546007546008546100e69796959493926001600160a01b039081169281169190811690600160a01b900460ff1689565b60405161009c999897969594939291906103b8565b6007546001600160a01b038281169116146101745760405162461bcd60e51b815260206004820152602e60248201527f4f6e6c7920746865206d616e7566616374757265722063616e2072656365697660448201526d32903a3432903830b1b5b0b3b29760911b60648201526084015b60405180910390fd5b6001600854600160a01b900460ff166002811115610194576101946103a4565b146101e15760405162461bcd60e51b815260206004820152601d60248201527f5061636b616765206d757374206265207069636b65642066697273742e000000604482015260640161016b565b600880546002919060ff60a01b1916600160a01b835b02179055506007546006546008546001600160a01b03928316929091169030907ff3ef229a52006ad83a5453cd9c02c79c841ccfdb65ad3f748788ab0ecf66296c90600190600160a01b900460ff166002811115610257576102576103a4565b6040805192835260208301919091520160405180910390a450565b6006546001600160a01b038281169116146102e75760405162461bcd60e51b815260206004820152602f60248201527f4f6e6c79207468652061737369676e656420736869707065722063616e20706960448201526e31b5903a3432903830b1b5b0b3b29760891b606482015260840161016b565b5f600854600160a01b900460ff166002811115610306576103066103a4565b1461035d5760405162461bcd60e51b815260206004820152602160248201527f5061636b616765206d7573742062652061742063726561746f722073746167656044820152601760f91b606482015260840161016b565b600880546001919060ff60a01b1916600160a01b836101f7565b5f60208284031215610387575f80fd5b81356001600160a01b038116811461039d575f80fd5b9392505050565b634e487b7160e01b5f52602160045260245ffd5b898152602081018990526040810188905260608101879052608081018690526001600160a01b0385811660a083015284811660c0830152831660e082015261012081016003831061041757634e487b7160e01b5f52602160045260245ffd5b826101008301529a995050505050505050505056fea2646970667358221220158e8d5054a33deace1a35728a9f138a416d25cbb6b933832b571d1160b0906064736f6c63430008140033",
  "immutableReferences": {},
  "source": "// SPDX-License-Identifier: MIT\r\npragma solidity ^0.8.0;\r\n\r\ncontract RawMaterials {\r\n    address public owner;\r\n\r\n    enum PackageStatus {\r\n        AtCreator,\r\n        Picked,\r\n        Delivered\r\n    }\r\n\r\n    struct Package {\r\n        bytes32 productId;\r\n        bytes32 description;\r\n        bytes32 farmerName;\r\n        bytes32 location;\r\n        uint256 quantity;\r\n        address shipper;\r\n        address manufacturer;\r\n        address supplier;\r\n        PackageStatus status;\r\n    }\r\n\r\n    Package public package;\r\n\r\n    event ShipmentUpdate(\r\n        address indexed batchId,\r\n        address indexed shipper,\r\n        address indexed manufacturer,\r\n        uint256 transporterType,\r\n        uint256 status\r\n    );\r\n\r\n    constructor(\r\n        address _supplier,\r\n        bytes32 _description,\r\n        bytes32 _farmerName,\r\n        bytes32 _location,\r\n        uint256 _quantity,\r\n        address _shipper,\r\n        address _manufacturer\r\n    ) {\r\n        owner = _supplier;\r\n        package = Package({\r\n            productId: bytes32(uint256(uint160(address(this)))),\r\n            description: _description,\r\n            farmerName: _farmerName,\r\n            location: _location,\r\n            quantity: _quantity,\r\n            shipper: _shipper,\r\n            manufacturer: _manufacturer,\r\n            supplier: _supplier,\r\n            status: PackageStatus.AtCreator\r\n        });\r\n    }\r\n\r\n    function pickPackage(address _shipper) public {\r\n        require(_shipper == package.shipper, \"Only the assigned shipper can pick the package.\");\r\n        require(package.status == PackageStatus.AtCreator, \"Package must be at creator stage.\");\r\n        package.status = PackageStatus.Picked;\r\n\r\n        emit ShipmentUpdate(address(this), package.shipper, package.manufacturer, 1, uint256(package.status));\r\n    }\r\n\r\n    function receivedPackage(address _manufacturer) public {\r\n        require(_manufacturer == package.manufacturer, \"Only the manufacturer can receive the package.\");\r\n        require(package.status == PackageStatus.Picked, \"Package must be picked first.\");\r\n        package.status = PackageStatus.Delivered;\r\n\r\n        emit ShipmentUpdate(address(this), package.shipper, package.manufacturer, 1, uint256(package.status));\r\n    }\r\n}\r\n",
  "sourcePath": "C:\\Users\\User\\OneDrive\\Desktop\\blockchain\\Blockchain_SupplyChain\\contracts\\RawMaterials.sol",
  "compiler": {
    "name": "solc",
    "version": "0.8.20+commit.a1b79de6.Emscripten.clang"
  },
  "schemaVersion": "3.4.16",
  "updatedAt": "2024-12-07T19:15:51.613Z",
  "devdoc": {
    "kind": "dev",
    "methods": {},
    "version": 1
  },
  "userdoc": {
    "kind": "user",
    "methods": {},
    "version": 1
  }
}