{
  "contractName": "SupplyChain",
  "abi": [
    {
      "inputs": [],
      "stateMutability": "nonpayable",
      "type": "constructor"
    },
    {
      "anonymous": false,
      "inputs": [
        {
          "indexed": true,
          "internalType": "address",
          "name": "productId",
          "type": "address"
        },
        {
          "indexed": true,
          "internalType": "address",
          "name": "supplier",
          "type": "address"
        },
        {
          "indexed": false,
          "internalType": "address",
          "name": "shipper",
          "type": "address"
        },
        {
          "indexed": true,
          "internalType": "address",
          "name": "receiver",
          "type": "address"
        }
      ],
      "name": "RawSupplyInitiated",
      "type": "event"
    },
    {
      "anonymous": false,
      "inputs": [
        {
          "indexed": true,
          "internalType": "address",
          "name": "ethAddress",
          "type": "address"
        },
        {
          "indexed": false,
          "internalType": "bytes32",
          "name": "name",
          "type": "bytes32"
        }
      ],
      "name": "UserRegistered",
      "type": "event"
    },
    {
      "anonymous": false,
      "inputs": [
        {
          "indexed": true,
          "internalType": "address",
          "name": "ethAddress",
          "type": "address"
        },
        {
          "indexed": false,
          "internalType": "bytes32",
          "name": "name",
          "type": "bytes32"
        },
        {
          "indexed": false,
          "internalType": "uint256",
          "name": "role",
          "type": "uint256"
        }
      ],
      "name": "UserRoleReassigned",
      "type": "event"
    },
    {
      "anonymous": false,
      "inputs": [
        {
          "indexed": true,
          "internalType": "address",
          "name": "ethAddress",
          "type": "address"
        },
        {
          "indexed": false,
          "internalType": "bytes32",
          "name": "name",
          "type": "bytes32"
        },
        {
          "indexed": false,
          "internalType": "uint256",
          "name": "role",
          "type": "uint256"
        }
      ],
      "name": "UserRoleRevoked",
      "type": "event"
    },
    {
      "inputs": [],
      "name": "owner",
      "outputs": [
        {
          "internalType": "address",
          "name": "",
          "type": "address"
        }
      ],
      "stateMutability": "view",
      "type": "function"
    },
    {
      "inputs": [
        {
          "internalType": "address",
          "name": "ethAddress",
          "type": "address"
        },
        {
          "internalType": "bytes32",
          "name": "name",
          "type": "bytes32"
        },
        {
          "internalType": "bytes32",
          "name": "location",
          "type": "bytes32"
        },
        {
          "internalType": "uint256",
          "name": "role",
          "type": "uint256"
        }
      ],
      "name": "registerUser",
      "outputs": [],
      "stateMutability": "nonpayable",
      "type": "function"
    },
    {
      "inputs": [
        {
          "internalType": "address",
          "name": "userAddress",
          "type": "address"
        }
      ],
      "name": "revokeRole",
      "outputs": [],
      "stateMutability": "nonpayable",
      "type": "function"
    },
    {
      "inputs": [
        {
          "internalType": "address",
          "name": "userAddress",
          "type": "address"
        },
        {
          "internalType": "uint256",
          "name": "role",
          "type": "uint256"
        }
      ],
      "name": "reassignRole",
      "outputs": [],
      "stateMutability": "nonpayable",
      "type": "function"
    },
    {
      "inputs": [
        {
          "internalType": "address",
          "name": "user",
          "type": "address"
        }
      ],
      "name": "getUserInfo",
      "outputs": [
        {
          "internalType": "bytes32",
          "name": "name",
          "type": "bytes32"
        },
        {
          "internalType": "bytes32",
          "name": "location",
          "type": "bytes32"
        },
        {
          "internalType": "address",
          "name": "ethAddress",
          "type": "address"
        },
        {
          "internalType": "enum SupplyChain.Roles",
          "name": "role",
          "type": "uint8"
        }
      ],
      "stateMutability": "view",
      "type": "function"
    },
    {
      "inputs": [],
      "name": "getUsersCount",
      "outputs": [
        {
          "internalType": "uint256",
          "name": "",
          "type": "uint256"
        }
      ],
      "stateMutability": "view",
      "type": "function"
    },
    {
      "inputs": [
        {
          "internalType": "uint256",
          "name": "index",
          "type": "uint256"
        }
      ],
      "name": "getUserByIndex",
      "outputs": [
        {
          "internalType": "bytes32",
          "name": "name",
          "type": "bytes32"
        },
        {
          "internalType": "bytes32",
          "name": "location",
          "type": "bytes32"
        },
        {
          "internalType": "address",
          "name": "ethAddress",
          "type": "address"
        },
        {
          "internalType": "enum SupplyChain.Roles",
          "name": "role",
          "type": "uint8"
        }
      ],
      "stateMutability": "view",
      "type": "function"
    },
    {
      "inputs": [
        {
          "internalType": "bytes32",
          "name": "description",
          "type": "bytes32"
        },
        {
          "internalType": "bytes32",
          "name": "farmerName",
          "type": "bytes32"
        },
        {
          "internalType": "bytes32",
          "name": "location",
          "type": "bytes32"
        },
        {
          "internalType": "uint256",
          "name": "quantity",
          "type": "uint256"
        },
        {
          "internalType": "address",
          "name": "shipper",
          "type": "address"
        },
        {
          "internalType": "address",
          "name": "receiver",
          "type": "address"
        }
      ],
      "name": "createRawPackage",
      "outputs": [],
      "stateMutability": "nonpayable",
      "type": "function"
    },
    {
      "inputs": [],
      "name": "getPackagesCountS",
      "outputs": [
        {
          "internalType": "uint256",
          "name": "",
          "type": "uint256"
        }
      ],
      "stateMutability": "view",
      "type": "function"
    },
    {
      "inputs": [
        {
          "internalType": "uint256",
          "name": "index",
          "type": "uint256"
        }
      ],
      "name": "getPackageIdByIndexS",
      "outputs": [
        {
          "internalType": "address",
          "name": "",
          "type": "address"
        }
      ],
      "stateMutability": "view",
      "type": "function"
    },
    {
      "inputs": [
        {
          "internalType": "address",
          "name": "packageId",
          "type": "address"
        },
        {
          "internalType": "uint256",
          "name": "transporterType",
          "type": "uint256"
        },
        {
          "internalType": "address",
          "name": "contractId",
          "type": "address"
        }
      ],
      "name": "loadConsignment",
      "outputs": [],
      "stateMutability": "nonpayable",
      "type": "function"
    },
    {
      "inputs": [
        {
          "internalType": "address",
          "name": "packageId",
          "type": "address"
        }
      ],
      "name": "rawPackageReceived",
      "outputs": [],
      "stateMutability": "nonpayable",
      "type": "function"
    },
    {
      "inputs": [],
      "name": "getPackagesCountM",
      "outputs": [
        {
          "internalType": "uint256",
          "name": "",
          "type": "uint256"
        }
      ],
      "stateMutability": "view",
      "type": "function"
    },
    {
      "inputs": [
        {
          "internalType": "uint256",
          "name": "index",
          "type": "uint256"
        }
      ],
      "name": "getPackageIdByIndexM",
      "outputs": [
        {
          "internalType": "address",
          "name": "",
          "type": "address"
        }
      ],
      "stateMutability": "view",
      "type": "function"
    }
  ],
  "bytecode": "0x608060405234801561000f575f80fd5b505f80546001600160a01b031916331790556116e68061002e5f395ff3fe608060405234801562000010575f80fd5b5060043610620000f8575f3560e01c8063923f645a1162000093578063a93c7abb116200006b578063a93c7abb14620001f6578063bc8c5b1c146200020d578063d40da9671462000224578063ff5d32fe146200023b575f80fd5b8063923f645a14620001cc5780639fb3a90314620001e3578063a4a1e26314620001ed575f80fd5b80635e33cea411620000d35780635e33cea414620001625780636386c1c7146200017957806380e52e3f14620001a25780638da5cb5b14620001b9575f80fd5b80632becfd0414620000fc5780634fa831de1462000119578063541ee5091462000132575b5f80fd5b6200010662000252565b6040519081526020015b60405180910390f35b620001306200012a36600462000e60565b620002c1565b005b620001496200014336600462000e9e565b620004de565b6040516001600160a01b03909116815260200162000110565b620001496200017336600462000e9e565b6200056e565b620001906200018a36600462000eb6565b620005e4565b60405162000110949392919062000eed565b62000130620001b336600462000eb6565b62000689565b5f5462000149906001600160a01b031681565b62000130620001dd36600462000f36565b620007d9565b62000106620009e3565b60025462000106565b620001306200020736600462000f6f565b62000a49565b620001306200021e36600462000eb6565b62000bc8565b620001306200023536600462000f9a565b62000caf565b620001906200024c36600462000e9e565b62000def565b5f6001335f90815260016020526040902060020154600160a01b900460ff16600781111562000285576200028562000ed9565b14620002ae5760405162461bcd60e51b8152600401620002a59062000ff3565b60405180910390fd5b50335f9081526003602052604090205490565b6002335f90815260016020526040902060020154600160a01b900460ff166007811115620002f357620002f362000ed9565b14620003555760405162461bcd60e51b815260206004820152602a60248201527f4f6e6c792061207472616e73706f727465722063616e2063616c6c207468697360448201526910333ab731ba34b7b71760b11b6064820152608401620002a5565b5f8211620003b05760405162461bcd60e51b815260206004820152602160248201527f5472616e73706f727465722074797065206d75737420626520646566696e65646044820152601760f91b6064820152608401620002a5565b81600103620004155760405163638e9a3d60e01b81523360048201526001600160a01b0384169063638e9a3d906024015b5f604051808303815f87803b158015620003f9575f80fd5b505af11580156200040c573d5f803e3d5ffd5b50505050505050565b816002036200044b5760405163638e9a3d60e01b81523360048201526001600160a01b0384169063638e9a3d90602401620003e1565b816003036200048957604051630887851b60e31b81526001600160a01b03848116600483015233602483015282169063443c28d890604401620003e1565b81600403620004d95760405163d39ff0e760e01b81526001600160a01b03848116600483015233602483015282169063d39ff0e7906044015f604051808303815f87803b158015620003f9575f80fd5b505050565b5f6003335f90815260016020526040902060020154600160a01b900460ff16600781111562000511576200051162000ed9565b14620005315760405162461bcd60e51b8152600401620002a5906200103a565b335f90815260046020526040902080548390811062000554576200055462001085565b5f918252602090912001546001600160a01b031692915050565b5f6001335f90815260016020526040902060020154600160a01b900460ff166007811115620005a157620005a162000ed9565b14620005c15760405162461bcd60e51b8152600401620002a59062000ff3565b335f90815260036020526040902080548390811062000554576200055462001085565b6001600160a01b038181165f908152600160208181526040808420815160808101835281548152938101549284019290925260028201549485169083015291928392839283928392906060830190600160a01b900460ff16600781111562000650576200065062000ed9565b600781111562000664576200066462000ed9565b9052508051602082015160408301516060909301519199909850919650945092505050565b5f546001600160a01b03163314620006b55760405162461bcd60e51b8152600401620002a59062001099565b5f6001600160a01b0382165f90815260016020526040902060020154600160a01b900460ff166007811115620006ef57620006ef62000ed9565b03620007355760405162461bcd60e51b81526020600482015260146024820152732ab9b2b9103737ba103932b3b4b9ba32b932b21760611b6044820152606401620002a5565b6001600160a01b0381165f81815260016020526040902080546002909101547fb5f04dfc1ccfefb366c4dc7a23670362462e0a415afb89d8cba1fb657e264c969190600160a01b900460ff16600781111562000795576200079562000ed9565b6040805192835260208301919091520160405180910390a26001600160a01b03165f908152600160205260409020600201805460ff60a01b1916600760a01b179055565b5f546001600160a01b03163314620008055760405162461bcd60e51b8152600401620002a59062001099565b5f6001600160a01b0385165f90815260016020526040902060020154600160a01b900460ff1660078111156200083f576200083f62000ed9565b146200088e5760405162461bcd60e51b815260206004820152601860248201527f5573657220616c726561647920726567697374657265642e00000000000000006044820152606401620002a5565b6040518060800160405280848152602001838152602001856001600160a01b03168152602001826007811115620008c957620008c962000ed9565b6007811115620008dd57620008dd62000ed9565b90526001600160a01b038086165f9081526001602081815260409283902085518155908501519181019190915590830151600282018054919093166001600160a01b031982168117845560608501519293916001600160a81b03191617600160a01b83600781111562000954576200095462000ed9565b021790555050600280546001810182555f919091527f405787fa12a823e0f2b7631cc41b3ba8828b3321ca811111fa75cd3aa3bb5ace0180546001600160a01b0319166001600160a01b0387169081179091556040518581529091507f4c5d15f5779ae1ecd7d55bd3283d898e29c35743d172bd7b83a16e17bc0afe2a9060200160405180910390a250505050565b5f6003335f90815260016020526040902060020154600160a01b900460ff16600781111562000a165762000a1662000ed9565b1462000a365760405162461bcd60e51b8152600401620002a5906200103a565b50335f9081526004602052604090205490565b5f546001600160a01b0316331462000a755760405162461bcd60e51b8152600401620002a59062001099565b5f6001600160a01b0383165f90815260016020526040902060020154600160a01b900460ff16600781111562000aaf5762000aaf62000ed9565b0362000af55760405162461bcd60e51b81526020600482015260146024820152732ab9b2b9103737ba103932b3b4b9ba32b932b21760611b6044820152606401620002a5565b80600781111562000b0a5762000b0a62000ed9565b6001600160a01b0383165f908152600160205260409020600201805460ff60a01b1916600160a01b83600781111562000b475762000b4762000ed9565b02179055506001600160a01b0382165f81815260016020526040902080546002909101547fec59c15b3cfa29a607747a7adae7b9e38149cf67823018978dfd5ec060a1a5269190600160a01b900460ff16600781111562000bac5762000bac62000ed9565b6040805192835260208301919091520160405180910390a25050565b6003335f90815260016020526040902060020154600160a01b900460ff16600781111562000bfa5762000bfa62000ed9565b1462000c1a5760405162461bcd60e51b8152600401620002a5906200103a565b604051630a57332d60e31b81523360048201526001600160a01b038216906352b99968906024015f604051808303815f87803b15801562000c59575f80fd5b505af115801562000c6c573d5f803e3d5ffd5b5050335f9081526004602090815260408220805460018101825590835291200180546001600160a01b0319166001600160a01b0394909416939093179092555050565b6001335f90815260016020526040902060020154600160a01b900460ff16600781111562000ce15762000ce162000ed9565b1462000d015760405162461bcd60e51b8152600401620002a59062000ff3565b5f3387878787878760405162000d179062000e36565b6001600160a01b0397881681526020810196909652604086019490945260608501929092526080840152831660a083015290911660c082015260e001604051809103905ff08015801562000d6d573d5f803e3d5ffd5b50335f81815260036020908152604080832080546001810182559084529282902090920180546001600160a01b0319166001600160a01b03868116918217909255925188821681529495508616937fb5bb651cc60d9e3637468d9d18eaf5764aea4e937d903fe8a021dfc66acc290a910160405180910390a450505050505050565b5f805f8062000e276002868154811062000e0d5762000e0d62001085565b5f918252602090912001546001600160a01b0316620005e4565b93509350935093509193509193565b6105d580620010dc83390190565b80356001600160a01b038116811462000e5b575f80fd5b919050565b5f805f6060848603121562000e73575f80fd5b62000e7e8462000e44565b92506020840135915062000e956040850162000e44565b90509250925092565b5f6020828403121562000eaf575f80fd5b5035919050565b5f6020828403121562000ec7575f80fd5b62000ed28262000e44565b9392505050565b634e487b7160e01b5f52602160045260245ffd5b848152602081018490526001600160a01b0383166040820152608081016008831062000f2757634e487b7160e01b5f52602160045260245ffd5b82606083015295945050505050565b5f805f806080858703121562000f4a575f80fd5b62000f558562000e44565b966020860135965060408601359560600135945092505050565b5f806040838503121562000f81575f80fd5b62000f8c8362000e44565b946020939093013593505050565b5f805f805f8060c0878903121562000fb0575f80fd5b8635955060208701359450604087013593506060870135925062000fd76080880162000e44565b915062000fe760a0880162000e44565b90509295509295509295565b60208082526027908201527f4f6e6c79206120737570706c6965722063616e2063616c6c20746869732066756040820152663731ba34b7b71760c91b606082015260800190565b6020808252602b908201527f4f6e6c792061206d616e7566616374757265722063616e2063616c6c2074686960408201526a3990333ab731ba34b7b71760a91b606082015260800190565b634e487b7160e01b5f52603260045260245ffd5b60208082526022908201527f4f6e6c79206f776e65722063616e2063616c6c20746869732066756e6374696f604082015261371760f11b60608201526080019056fe608060405234801561000f575f80fd5b506040516105d53803806105d583398101604081905261002e91610101565b5f80546001600160a01b039889166001600160a01b031991821681178355604080516101208101825230808252602082018c90529181018a90526060810189905260808101889052958b1660a0870181905294909a1660c0860181905260e08601829052610100909501929092526001989098556002969096556003949094556004929092556005556006805485169092179091556007805490931617909155600880546001600160a81b0319169091179055610166565b80516001600160a01b03811681146100fc575f80fd5b919050565b5f805f805f805f60e0888a031215610117575f80fd5b610120886100e6565b96506020880151955060408801519450606088015193506080880151925061014a60a089016100e6565b915061015860c089016100e6565b905092959891949750929550565b610462806101735f395ff3fe608060405234801561000f575f80fd5b506004361061004a575f3560e01c806352b999681461004e578063638e9a3d146100635780638da5cb5b14610076578063aaac9718146100a5575b5f80fd5b61006161005c366004610377565b6100fb565b005b610061610071366004610377565b610272565b5f54610088906001600160a01b031681565b6040516001600160a01b0390911681526020015b60405180910390f35b6001546002546003546004546005546006546007546008546100e69796959493926001600160a01b039081169281169190811690600160a01b900460ff1689565b60405161009c999897969594939291906103b8565b6007546001600160a01b038281169116146101745760405162461bcd60e51b815260206004820152602e60248201527f4f6e6c7920746865206d616e7566616374757265722063616e2072656365697660448201526d32903a3432903830b1b5b0b3b29760911b60648201526084015b60405180910390fd5b6001600854600160a01b900460ff166002811115610194576101946103a4565b146101e15760405162461bcd60e51b815260206004820152601d60248201527f5061636b616765206d757374206265207069636b65642066697273742e000000604482015260640161016b565b600880546002919060ff60a01b1916600160a01b835b02179055506007546006546008546001600160a01b03928316929091169030907ff3ef229a52006ad83a5453cd9c02c79c841ccfdb65ad3f748788ab0ecf66296c90600190600160a01b900460ff166002811115610257576102576103a4565b6040805192835260208301919091520160405180910390a450565b6006546001600160a01b038281169116146102e75760405162461bcd60e51b815260206004820152602f60248201527f4f6e6c79207468652061737369676e656420736869707065722063616e20706960448201526e31b5903a3432903830b1b5b0b3b29760891b606482015260840161016b565b5f600854600160a01b900460ff166002811115610306576103066103a4565b1461035d5760405162461bcd60e51b815260206004820152602160248201527f5061636b616765206d7573742062652061742063726561746f722073746167656044820152601760f91b606482015260840161016b565b600880546001919060ff60a01b1916600160a01b836101f7565b5f60208284031215610387575f80fd5b81356001600160a01b038116811461039d575f80fd5b9392505050565b634e487b7160e01b5f52602160045260245ffd5b898152602081018990526040810188905260608101879052608081018690526001600160a01b0385811660a083015284811660c0830152831660e082015261012081016003831061041757634e487b7160e01b5f52602160045260245ffd5b826101008301529a995050505050505050505056fea2646970667358221220158e8d5054a33deace1a35728a9f138a416d25cbb6b933832b571d1160b0906064736f6c63430008140033a26469706673582212205c9e37e27c0ca97586fbf70b1e8e861c25d716c83d8eb027c5f3190306956ae464736f6c63430008140033",
  "immutableReferences": {},
  "source": "// SPDX-License-Identifier: MIT\r\npragma solidity ^0.8.0;\r\n\r\nimport \"./RawMaterials.sol\";\r\nimport \"./Madicine.sol\";\r\nimport \"./MadicineW_D.sol\";\r\nimport \"./MadicineD_P.sol\";\r\n\r\n/// @title Blockchain: Pharmaceutical SupplyChain\r\n/// @dev Smart contract for managing the supply chain of pharmaceutical products\r\ncontract SupplyChain {\r\n    /// @notice Owner of the contract\r\n    address public owner;\r\n\r\n    /// @dev Initiate SupplyChain Contract\r\n    constructor() {\r\n        owner = msg.sender;\r\n    }\r\n\r\n    /********************************************** Owner Section *********************************************/\r\n    /// @dev Restricts access to the contract owner\r\n    modifier onlyOwner() {\r\n        require(msg.sender == owner, \"Only owner can call this function.\");\r\n        _;\r\n    }\r\n\r\n    /// @notice Roles in the supply chain\r\n    enum Roles {\r\n        NoRole,\r\n        Supplier,\r\n        Transporter,\r\n        Manufacturer,\r\n        Wholesaler,\r\n        Distributor,\r\n        Pharma,\r\n        Revoke\r\n    }\r\n\r\n    /// @dev Events for user management\r\n    event UserRegistered(address indexed ethAddress, bytes32 name);\r\n    event UserRoleRevoked(address indexed ethAddress, bytes32 name, uint256 role);\r\n    event UserRoleReassigned(address indexed ethAddress, bytes32 name, uint256 role);\r\n\r\n    /// @notice User information structure\r\n    struct UserInfo {\r\n        bytes32 name;\r\n        bytes32 location;\r\n        address ethAddress;\r\n        Roles role;\r\n    }\r\n\r\n    mapping(address => UserInfo) private userDetails;\r\n    address[] private users;\r\n\r\n    /// @dev Register a new user by the owner\r\n    function registerUser(\r\n        address ethAddress,\r\n        bytes32 name,\r\n        bytes32 location,\r\n        uint256 role\r\n    ) public onlyOwner {\r\n        require(\r\n            userDetails[ethAddress].role == Roles.NoRole,\r\n            \"User already registered.\"\r\n        );\r\n        userDetails[ethAddress] = UserInfo({\r\n            name: name,\r\n            location: location,\r\n            ethAddress: ethAddress,\r\n            role: Roles(role)\r\n        });\r\n        users.push(ethAddress);\r\n        emit UserRegistered(ethAddress, name);\r\n    }\r\n\r\n    /// @dev Revoke a user's role\r\n    function revokeRole(address userAddress) public onlyOwner {\r\n        require(\r\n            userDetails[userAddress].role != Roles.NoRole,\r\n            \"User not registered.\"\r\n        );\r\n        emit UserRoleRevoked(\r\n            userAddress,\r\n            userDetails[userAddress].name,\r\n            uint256(userDetails[userAddress].role)\r\n        );\r\n        userDetails[userAddress].role = Roles.Revoke;\r\n    }\r\n\r\n    /// @dev Reassign a user's role\r\n    function reassignRole(address userAddress, uint256 role) public onlyOwner {\r\n        require(\r\n            userDetails[userAddress].role != Roles.NoRole,\r\n            \"User not registered.\"\r\n        );\r\n        userDetails[userAddress].role = Roles(role);\r\n        emit UserRoleReassigned(\r\n            userAddress,\r\n            userDetails[userAddress].name,\r\n            uint256(userDetails[userAddress].role)\r\n        );\r\n    }\r\n\r\n    /// @dev Get user information\r\n    function getUserInfo(address user)\r\n        public\r\n        view\r\n        returns (\r\n            bytes32 name,\r\n            bytes32 location,\r\n            address ethAddress,\r\n            Roles role\r\n        )\r\n    {\r\n        UserInfo memory info = userDetails[user];\r\n        return (info.name, info.location, info.ethAddress, info.role);\r\n    }\r\n\r\n    /// @dev Get the total number of registered users\r\n    function getUsersCount() public view returns (uint256) {\r\n        return users.length;\r\n    }\r\n\r\n    /// @dev Get a user by index\r\n    function getUserByIndex(uint256 index)\r\n        public\r\n        view\r\n        returns (\r\n            bytes32 name,\r\n            bytes32 location,\r\n            address ethAddress,\r\n            Roles role\r\n        )\r\n    {\r\n        return getUserInfo(users[index]);\r\n    }\r\n\r\n    /********************************************** Supplier Section ******************************************/\r\n    mapping(address => address[]) private supplierRawProducts;\r\n\r\n    event RawSupplyInitiated(\r\n        address indexed productId,\r\n        address indexed supplier,\r\n        address shipper,\r\n        address indexed receiver\r\n    );\r\n\r\n    /// @dev Create a new raw materials package\r\n    function createRawPackage(\r\n        bytes32 description,\r\n        bytes32 farmerName,\r\n        bytes32 location,\r\n        uint256 quantity,\r\n        address shipper,\r\n        address receiver\r\n    ) public {\r\n        require(\r\n            userDetails[msg.sender].role == Roles.Supplier,\r\n            \"Only a supplier can call this function.\"\r\n        );\r\n\r\n        RawMaterials rawData = new RawMaterials(\r\n            msg.sender,\r\n            description,\r\n            farmerName,\r\n            location,\r\n            quantity,\r\n            shipper,\r\n            receiver\r\n        );\r\n\r\n        supplierRawProducts[msg.sender].push(address(rawData));\r\n        emit RawSupplyInitiated(address(rawData), msg.sender, shipper, receiver);\r\n    }\r\n\r\n    /// @dev Get the number of raw packages created by a supplier\r\n    function getPackagesCountS() public view returns (uint256) {\r\n        require(\r\n            userDetails[msg.sender].role == Roles.Supplier,\r\n            \"Only a supplier can call this function.\"\r\n        );\r\n        return supplierRawProducts[msg.sender].length;\r\n    }\r\n\r\n    /// @dev Get the package ID by index\r\n    function getPackageIdByIndexS(uint256 index)\r\n        public\r\n        view\r\n        returns (address)\r\n    {\r\n        require(\r\n            userDetails[msg.sender].role == Roles.Supplier,\r\n            \"Only a supplier can call this function.\"\r\n        );\r\n        return supplierRawProducts[msg.sender][index];\r\n    }\r\n\r\n    /********************************************** Transporter Section ******************************************/\r\n    function loadConsignment(\r\n        address packageId,\r\n        uint256 transporterType,\r\n        address contractId\r\n    ) public {\r\n        require(\r\n            userDetails[msg.sender].role == Roles.Transporter,\r\n            \"Only a transporter can call this function.\"\r\n        );\r\n        require(transporterType > 0, \"Transporter type must be defined.\");\r\n\r\n        if (transporterType == 1) {\r\n            RawMaterials(packageId).pickPackage(msg.sender);\r\n        } else if (transporterType == 2) {\r\n            Madicine(packageId).pickPackage(msg.sender);\r\n        } else if (transporterType == 3) {\r\n            MadicineW_D(contractId).pickWD(packageId, msg.sender);\r\n        } else if (transporterType == 4) {\r\n            MadicineD_P(contractId).pickDP(packageId, msg.sender);\r\n        }\r\n    }\r\n\r\n    /********************************************** Manufacturer Section ******************************************/\r\n    mapping(address => address[]) private rawPackagesAtManufacturer;\r\n\r\n    function rawPackageReceived(address packageId) public {\r\n        require(\r\n            userDetails[msg.sender].role == Roles.Manufacturer,\r\n            \"Only a manufacturer can call this function.\"\r\n        );\r\n\r\n        RawMaterials(packageId).receivedPackage(msg.sender);\r\n        rawPackagesAtManufacturer[msg.sender].push(packageId);\r\n    }\r\n\r\n    function getPackagesCountM() public view returns (uint256) {\r\n        require(\r\n            userDetails[msg.sender].role == Roles.Manufacturer,\r\n            \"Only a manufacturer can call this function.\"\r\n        );\r\n        return rawPackagesAtManufacturer[msg.sender].length;\r\n    }\r\n\r\n    function getPackageIdByIndexM(uint256 index)\r\n        public\r\n        view\r\n        returns (address)\r\n    {\r\n        require(\r\n            userDetails[msg.sender].role == Roles.Manufacturer,\r\n            \"Only a manufacturer can call this function.\"\r\n        );\r\n        return rawPackagesAtManufacturer[msg.sender][index];\r\n    }\r\n}\r\n",
  "sourcePath": "C:\\Users\\User\\OneDrive\\Desktop\\blockchain\\Blockchain_SupplyChain\\contracts\\SupplyChain.sol",
  "compiler": {
    "name": "solc",
    "version": "0.8.20+commit.a1b79de6.Emscripten.clang"
  },
  "schemaVersion": "3.4.16",
  "updatedAt": "2024-12-07T19:15:51.618Z",
  "devdoc": {
    "details": "Smart contract for managing the supply chain of pharmaceutical products",
    "events": {
      "UserRegistered(address,bytes32)": {
        "details": "Events for user management"
      }
    },
    "kind": "dev",
    "methods": {
      "constructor": {
        "details": "Initiate SupplyChain Contract"
      },
      "createRawPackage(bytes32,bytes32,bytes32,uint256,address,address)": {
        "details": "Create a new raw materials package"
      },
      "getPackageIdByIndexS(uint256)": {
        "details": "Get the package ID by index"
      },
      "getPackagesCountS()": {
        "details": "Get the number of raw packages created by a supplier"
      },
      "getUserByIndex(uint256)": {
        "details": "Get a user by index"
      },
      "getUserInfo(address)": {
        "details": "Get user information"
      },
      "getUsersCount()": {
        "details": "Get the total number of registered users"
      },
      "reassignRole(address,uint256)": {
        "details": "Reassign a user's role"
      },
      "registerUser(address,bytes32,bytes32,uint256)": {
        "details": "Register a new user by the owner"
      },
      "revokeRole(address)": {
        "details": "Revoke a user's role"
      }
    },
    "title": "Blockchain: Pharmaceutical SupplyChain",
    "version": 1
  },
  "userdoc": {
    "kind": "user",
    "methods": {
      "owner()": {
        "notice": "Owner of the contract"
      }
    },
    "version": 1
  }
}