{
  "contractName": "SupplyChainOld",
  "abi": [
    {
      "inputs": [],
      "stateMutability": "nonpayable",
      "type": "constructor"
    },
    {
      "anonymous": false,
      "inputs": [
        {
          "indexed": true,
          "internalType": "bytes32",
          "name": "productId",
          "type": "bytes32"
        },
        {
          "indexed": true,
          "internalType": "address",
          "name": "supplier",
          "type": "address"
        },
        {
          "indexed": false,
          "internalType": "address",
          "name": "shipper",
          "type": "address"
        },
        {
          "indexed": true,
          "internalType": "address",
          "name": "receiver",
          "type": "address"
        }
      ],
      "name": "RawSupplyInitiated",
      "type": "event"
    },
    {
      "anonymous": false,
      "inputs": [
        {
          "indexed": true,
          "internalType": "bytes32",
          "name": "batchId",
          "type": "bytes32"
        },
        {
          "indexed": true,
          "internalType": "address",
          "name": "shipper",
          "type": "address"
        },
        {
          "indexed": true,
          "internalType": "address",
          "name": "receiver",
          "type": "address"
        },
        {
          "indexed": false,
          "internalType": "uint256",
          "name": "transporterType",
          "type": "uint256"
        },
        {
          "indexed": false,
          "internalType": "uint256",
          "name": "status",
          "type": "uint256"
        }
      ],
      "name": "ShipmentUpdated",
      "type": "event"
    },
    {
      "anonymous": false,
      "inputs": [
        {
          "indexed": true,
          "internalType": "address",
          "name": "ethAddress",
          "type": "address"
        },
        {
          "indexed": false,
          "internalType": "bytes32",
          "name": "name",
          "type": "bytes32"
        }
      ],
      "name": "UserRegistered",
      "type": "event"
    },
    {
      "anonymous": false,
      "inputs": [
        {
          "indexed": true,
          "internalType": "address",
          "name": "ethAddress",
          "type": "address"
        },
        {
          "indexed": false,
          "internalType": "bytes32",
          "name": "name",
          "type": "bytes32"
        },
        {
          "indexed": false,
          "internalType": "enum SupplyChainOld.Roles",
          "name": "role",
          "type": "uint8"
        }
      ],
      "name": "UserRoleReassigned",
      "type": "event"
    },
    {
      "anonymous": false,
      "inputs": [
        {
          "indexed": true,
          "internalType": "address",
          "name": "ethAddress",
          "type": "address"
        },
        {
          "indexed": false,
          "internalType": "bytes32",
          "name": "name",
          "type": "bytes32"
        },
        {
          "indexed": false,
          "internalType": "enum SupplyChainOld.Roles",
          "name": "role",
          "type": "uint8"
        }
      ],
      "name": "UserRoleRevoked",
      "type": "event"
    },
    {
      "inputs": [],
      "name": "owner",
      "outputs": [
        {
          "internalType": "address",
          "name": "",
          "type": "address"
        }
      ],
      "stateMutability": "view",
      "type": "function"
    },
    {
      "inputs": [
        {
          "internalType": "bytes32",
          "name": "",
          "type": "bytes32"
        }
      ],
      "name": "rawProductDetails",
      "outputs": [
        {
          "internalType": "bytes32",
          "name": "productId",
          "type": "bytes32"
        },
        {
          "internalType": "bytes32",
          "name": "description",
          "type": "bytes32"
        },
        {
          "internalType": "bytes32",
          "name": "farmerName",
          "type": "bytes32"
        },
        {
          "internalType": "bytes32",
          "name": "location",
          "type": "bytes32"
        },
        {
          "internalType": "uint256",
          "name": "quantity",
          "type": "uint256"
        },
        {
          "internalType": "address",
          "name": "shipper",
          "type": "address"
        },
        {
          "internalType": "address",
          "name": "receiver",
          "type": "address"
        },
        {
          "internalType": "address",
          "name": "supplier",
          "type": "address"
        },
        {
          "internalType": "enum SupplyChainOld.PackageStatus",
          "name": "status",
          "type": "uint8"
        }
      ],
      "stateMutability": "view",
      "type": "function"
    },
    {
      "inputs": [
        {
          "internalType": "address",
          "name": "",
          "type": "address"
        },
        {
          "internalType": "uint256",
          "name": "",
          "type": "uint256"
        }
      ],
      "name": "supplierRawProducts",
      "outputs": [
        {
          "internalType": "bytes32",
          "name": "",
          "type": "bytes32"
        }
      ],
      "stateMutability": "view",
      "type": "function"
    },
    {
      "inputs": [
        {
          "internalType": "address",
          "name": "",
          "type": "address"
        }
      ],
      "name": "userDetails",
      "outputs": [
        {
          "internalType": "bytes32",
          "name": "name",
          "type": "bytes32"
        },
        {
          "internalType": "bytes32",
          "name": "location",
          "type": "bytes32"
        },
        {
          "internalType": "address",
          "name": "ethAddress",
          "type": "address"
        },
        {
          "internalType": "enum SupplyChainOld.Roles",
          "name": "role",
          "type": "uint8"
        }
      ],
      "stateMutability": "view",
      "type": "function"
    },
    {
      "inputs": [
        {
          "internalType": "uint256",
          "name": "",
          "type": "uint256"
        }
      ],
      "name": "users",
      "outputs": [
        {
          "internalType": "address",
          "name": "",
          "type": "address"
        }
      ],
      "stateMutability": "view",
      "type": "function"
    },
    {
      "inputs": [
        {
          "internalType": "address",
          "name": "ethAddress",
          "type": "address"
        },
        {
          "internalType": "bytes32",
          "name": "name",
          "type": "bytes32"
        },
        {
          "internalType": "bytes32",
          "name": "location",
          "type": "bytes32"
        },
        {
          "internalType": "uint256",
          "name": "role",
          "type": "uint256"
        }
      ],
      "name": "registerUser",
      "outputs": [],
      "stateMutability": "nonpayable",
      "type": "function"
    },
    {
      "inputs": [
        {
          "internalType": "address",
          "name": "userAddress",
          "type": "address"
        }
      ],
      "name": "revokeRole",
      "outputs": [],
      "stateMutability": "nonpayable",
      "type": "function"
    },
    {
      "inputs": [
        {
          "internalType": "address",
          "name": "userAddress",
          "type": "address"
        },
        {
          "internalType": "uint256",
          "name": "role",
          "type": "uint256"
        }
      ],
      "name": "reassignRole",
      "outputs": [],
      "stateMutability": "nonpayable",
      "type": "function"
    },
    {
      "inputs": [
        {
          "internalType": "bytes32",
          "name": "description",
          "type": "bytes32"
        },
        {
          "internalType": "bytes32",
          "name": "farmerName",
          "type": "bytes32"
        },
        {
          "internalType": "bytes32",
          "name": "location",
          "type": "bytes32"
        },
        {
          "internalType": "uint256",
          "name": "quantity",
          "type": "uint256"
        },
        {
          "internalType": "address",
          "name": "shipper",
          "type": "address"
        },
        {
          "internalType": "address",
          "name": "receiver",
          "type": "address"
        }
      ],
      "name": "supplyRawMaterials",
      "outputs": [],
      "stateMutability": "nonpayable",
      "type": "function"
    },
    {
      "inputs": [
        {
          "internalType": "bytes32",
          "name": "productId",
          "type": "bytes32"
        },
        {
          "internalType": "address",
          "name": "shipper",
          "type": "address"
        }
      ],
      "name": "pickPackage",
      "outputs": [],
      "stateMutability": "nonpayable",
      "type": "function"
    },
    {
      "inputs": [
        {
          "internalType": "bytes32",
          "name": "productId",
          "type": "bytes32"
        },
        {
          "internalType": "address",
          "name": "receiver",
          "type": "address"
        }
      ],
      "name": "receivePackage",
      "outputs": [],
      "stateMutability": "nonpayable",
      "type": "function"
    },
    {
      "inputs": [],
      "name": "getUsersCount",
      "outputs": [
        {
          "internalType": "uint256",
          "name": "",
          "type": "uint256"
        }
      ],
      "stateMutability": "view",
      "type": "function"
    },
    {
      "inputs": [
        {
          "internalType": "uint256",
          "name": "index",
          "type": "uint256"
        }
      ],
      "name": "getUserByIndex",
      "outputs": [
        {
          "components": [
            {
              "internalType": "bytes32",
              "name": "name",
              "type": "bytes32"
            },
            {
              "internalType": "bytes32",
              "name": "location",
              "type": "bytes32"
            },
            {
              "internalType": "address",
              "name": "ethAddress",
              "type": "address"
            },
            {
              "internalType": "enum SupplyChainOld.Roles",
              "name": "role",
              "type": "uint8"
            }
          ],
          "internalType": "struct SupplyChainOld.UserInfo",
          "name": "",
          "type": "tuple"
        }
      ],
      "stateMutability": "view",
      "type": "function"
    },
    {
      "inputs": [
        {
          "internalType": "address",
          "name": "supplier",
          "type": "address"
        }
      ],
      "name": "getRawProductsBySupplier",
      "outputs": [
        {
          "internalType": "bytes32[]",
          "name": "",
          "type": "bytes32[]"
        }
      ],
      "stateMutability": "view",
      "type": "function"
    },
    {
      "inputs": [
        {
          "internalType": "bytes32",
          "name": "productId",
          "type": "bytes32"
        }
      ],
      "name": "getRawProductDetails",
      "outputs": [
        {
          "components": [
            {
              "internalType": "bytes32",
              "name": "productId",
              "type": "bytes32"
            },
            {
              "internalType": "bytes32",
              "name": "description",
              "type": "bytes32"
            },
            {
              "internalType": "bytes32",
              "name": "farmerName",
              "type": "bytes32"
            },
            {
              "internalType": "bytes32",
              "name": "location",
              "type": "bytes32"
            },
            {
              "internalType": "uint256",
              "name": "quantity",
              "type": "uint256"
            },
            {
              "internalType": "address",
              "name": "shipper",
              "type": "address"
            },
            {
              "internalType": "address",
              "name": "receiver",
              "type": "address"
            },
            {
              "internalType": "address",
              "name": "supplier",
              "type": "address"
            },
            {
              "internalType": "enum SupplyChainOld.PackageStatus",
              "name": "status",
              "type": "uint8"
            }
          ],
          "internalType": "struct SupplyChainOld.RawProductInfo",
          "name": "",
          "type": "tuple"
        }
      ],
      "stateMutability": "view",
      "type": "function"
    }
  ],
  "bytecode": "0x608060405234801561000f575f80fd5b505f80546001600160a01b031916331790556112b48061002e5f395ff3fe608060405234801561000f575f80fd5b50600436106100f0575f3560e01c80638da5cb5b11610093578063a4a1e26311610063578063a4a1e263146102bc578063a93c7abb146102c4578063eb858eac146102d7578063ff5d32fe146102ea575f80fd5b80638da5cb5b146101f55780638f5ed71b14610207578063923f645a146102285780639955deac1461023b575f80fd5b8063365b98b2116100ce578063365b98b21461015257806340ce2d1d1461017d57806348dec2a71461019057806380e52e3f146101e2575f80fd5b8063040e5752146100f4578063061587591461011d5780631ae5343214610132575b5f80fd5b610107610102366004610f25565b61030a565b6040516101149190610f45565b60405180910390f35b61013061012b366004610f88565b610373565b005b610145610140366004610fb2565b6104cb565b6040516101149190610ff1565b610165610160366004610fb2565b6105cb565b6040516001600160a01b039091168152602001610114565b61013061018b366004610f88565b6105f3565b6101d261019e366004610f25565b600160208190525f91825260409091208054918101546002909101546001600160a01b03811690600160a01b900460ff1684565b604051610114949392919061108d565b6101306101f0366004610f25565b610730565b5f54610165906001600160a01b031681565b61021a6102153660046110c0565b610863565b604051908152602001610114565b6101306102363660046110e8565b61088e565b6102a7610249366004610fb2565b600360208190525f918252604090912080546001820154600283015493830154600484015460058501546006860154600790960154949693959394929391926001600160a01b0391821692821691811690600160a01b900460ff1689565b6040516101149998979695949392919061111e565b60025461021a565b6101306102d23660046110c0565b610a87565b6101306102e536600461117d565b610be3565b6102fd6102f8366004610fb2565b610e02565b60405161011491906111d1565b6001600160a01b0381165f9081526004602090815260409182902080548351818402810184019094528084526060939283018282801561036757602002820191905f5260205f20905b815481526020019060010190808311610353575b50505050509050919050565b5f828152600360205260409020600501546001600160a01b038281169116146103db5760405162461bcd60e51b81526020600482015260156024820152742ab730baba3437b934bd32b21039b434b83832b91760591b60448201526064015b60405180910390fd5b5f8083815260036020526040902060070154600160a01b900460ff16600281111561040857610408610fc9565b146104555760405162461bcd60e51b815260206004820152601d60248201527f5061636b616765206e6f742061742063726561746f722073746167652e00000060448201526064016103d2565b5f82815260036020526040902060078101805460ff60a01b1916600160a01b179055600601546001600160a01b03908116908216837f567efcb45c9332e155f90bb70100dbb4fdeb68ee0a23f2a52f30beef8b32a7e86001805b6040805192835260208301919091520160405180910390a45050565b61051760408051610120810182525f80825260208201819052918101829052606081018290526080810182905260a0810182905260c0810182905260e081018290529061010082015290565b5f8281526003602081815260409283902083516101208101855281548152600182015492810192909252600280820154948301949094529182015460608201526004820154608082015260058201546001600160a01b0390811660a08301526006830154811660c0830152600783015490811660e08301529092610100840191600160a01b900460ff16908111156105b1576105b1610fc9565b60028111156105c2576105c2610fc9565b90525092915050565b600281815481106105da575f80fd5b5f918252602090912001546001600160a01b0316905081565b5f828152600360205260409020600601546001600160a01b038281169116146106575760405162461bcd60e51b81526020600482015260166024820152752ab730baba3437b934bd32b2103932b1b2b4bb32b91760511b60448201526064016103d2565b60015f83815260036020526040902060070154600160a01b900460ff16600281111561068557610685610fc9565b146106d25760405162461bcd60e51b815260206004820152601760248201527f5061636b616765206e6f74207069636b6564207965742e00000000000000000060448201526064016103d2565b5f82815260036020526040902060078101805460ff60a01b1916600160a11b179055600501546001600160a01b038281169116837f567efcb45c9332e155f90bb70100dbb4fdeb68ee0a23f2a52f30beef8b32a7e8600160026104af565b5f546001600160a01b031633146107595760405162461bcd60e51b81526004016103d290611210565b5f6001600160a01b0382165f90815260016020526040902060020154600160a01b900460ff16600781111561079057610790610fc9565b036107d45760405162461bcd60e51b81526020600482015260146024820152732ab9b2b9103737ba103932b3b4b9ba32b932b21760611b60448201526064016103d2565b6001600160a01b0381165f8181526001602052604090819020805460029091015491517fb221b0c5a2094fba8f2c4794a2f46c2841c85c7ee4e5aa7d535b6962768169229261082f9291600160a01b90910460ff1690611256565b60405180910390a26001600160a01b03165f908152600160205260409020600201805460ff60a01b1916600760a01b179055565b6004602052815f5260405f20818154811061087c575f80fd5b905f5260205f20015f91509150505481565b5f546001600160a01b031633146108b75760405162461bcd60e51b81526004016103d290611210565b5f6001600160a01b0385165f90815260016020526040902060020154600160a01b900460ff1660078111156108ee576108ee610fc9565b1461093b5760405162461bcd60e51b815260206004820152601b60248201527f5573657220697320616c726561647920726567697374657265642e000000000060448201526064016103d2565b6040518060800160405280848152602001838152602001856001600160a01b0316815260200182600781111561097357610973610fc9565b600781111561098457610984610fc9565b90526001600160a01b038086165f9081526001602081815260409283902085518155908501519181019190915590830151600282018054919093166001600160a01b031982168117845560608501519293916001600160a81b03191617600160a01b8360078111156109f8576109f8610fc9565b021790555050600280546001810182555f919091527f405787fa12a823e0f2b7631cc41b3ba8828b3321ca811111fa75cd3aa3bb5ace0180546001600160a01b0319166001600160a01b0387169081179091556040518581529091507f4c5d15f5779ae1ecd7d55bd3283d898e29c35743d172bd7b83a16e17bc0afe2a9060200160405180910390a250505050565b5f546001600160a01b03163314610ab05760405162461bcd60e51b81526004016103d290611210565b5f6001600160a01b0383165f90815260016020526040902060020154600160a01b900460ff166007811115610ae757610ae7610fc9565b03610b2b5760405162461bcd60e51b81526020600482015260146024820152732ab9b2b9103737ba103932b3b4b9ba32b932b21760611b60448201526064016103d2565b806007811115610b3d57610b3d610fc9565b6001600160a01b0383165f908152600160205260409020600201805460ff60a01b1916600160a01b836007811115610b7757610b77610fc9565b02179055506001600160a01b0382165f8181526001602052604090819020805460029091015491517fef56fbae76b357fedd7329517d0be21c4fa93026c0c3c550114888f5b22f6ee392610bd79291600160a01b90910460ff1690611256565b60405180910390a25050565b600180335f90815260016020526040902060020154600160a01b900460ff166007811115610c1357610c13610fc9565b14610c555760405162461bcd60e51b81526020600482015260126024820152712ab730baba3437b934bd32b2103937b6329760711b60448201526064016103d2565b6040516bffffffffffffffffffffffff193360601b166020820152436034820152605481018590525f9060740160408051808303601f190181528282528051602091820120610120840183528084528184018c81528484018c8152606086018c8152608087018c81526001600160a01b038c811660a08a019081528c821660c08b019081523360e08c019081525f6101008d018181528a825260039b8c90529b90208c5181559751600189015595516002808901919091559451988701989098559151600486015590516005850180549183166001600160a01b031992831617905595516006850180549183169188169190911790559151600784018054919093169581168617835595519397509194929390926001600160a81b0319161790600160a01b908490811115610d8c57610d8c610fc9565b021790555050335f81815260046020908152604080832080546001810182559084529282902090920185905590516001600160a01b0388811682528716935084917f6ff24a680e51d6b34ba5b790a2d2e28927ecfa5334321f42b88ed0dc4380d33a910160405180910390a45050505050505050565b610e29604080516080810182525f8082526020820181905291810182905290606082015290565b6002548210610e715760405162461bcd60e51b815260206004820152601460248201527324b73232bc1037baba1037b3103137bab732399760611b60448201526064016103d2565b60015f60028481548110610e8757610e8761126a565b5f9182526020808320909101546001600160a01b03908116845283820194909452604092830190912082516080810184528154815260018201549281019290925260028101549384169282019290925291606083019060ff600160a01b909104166007811115610ef957610ef9610fc9565b60078111156105c2576105c2610fc9565b80356001600160a01b0381168114610f20575f80fd5b919050565b5f60208284031215610f35575f80fd5b610f3e82610f0a565b9392505050565b602080825282518282018190525f9190848201906040850190845b81811015610f7c57835183529284019291840191600101610f60565b50909695505050505050565b5f8060408385031215610f99575f80fd5b82359150610fa960208401610f0a565b90509250929050565b5f60208284031215610fc2575f80fd5b5035919050565b634e487b7160e01b5f52602160045260245ffd5b60038110610fed57610fed610fc9565b9052565b5f61012082019050825182526020830151602083015260408301516040830152606083015160608301526080830151608083015260a083015160018060a01b0380821660a08501528060c08601511660c0850152505060e083015161106160e08401826001600160a01b03169052565b506101008084015161107582850182610fdd565b505092915050565b60088110610fed57610fed610fc9565b848152602081018490526001600160a01b0383166040820152608081016110b7606083018461107d565b95945050505050565b5f80604083850312156110d1575f80fd5b6110da83610f0a565b946020939093013593505050565b5f805f80608085870312156110fb575f80fd5b61110485610f0a565b966020860135965060408601359560600135945092505050565b898152602081018990526040810188905260608101879052608081018690526001600160a01b0385811660a083015284811660c0830152831660e0820152610120810161116f610100830184610fdd565b9a9950505050505050505050565b5f805f805f8060c08789031215611192575f80fd5b863595506020870135945060408701359350606087013592506111b760808801610f0a565b91506111c560a08801610f0a565b90509295509295509295565b81518152602080830151908201526040808301516001600160a01b03169082015260608083015160808301916112099084018261107d565b5092915050565b60208082526026908201527f4f6e6c7920746865206f776e65722063616e2063616c6c20746869732066756e60408201526531ba34b7b71760d11b606082015260800190565b82815260408101610f3e602083018461107d565b634e487b7160e01b5f52603260045260245ffdfea2646970667358221220e3729030b49ca4fb2c751027ab05783becaca3c410ffb79b92164e5d4a914e7864736f6c63430008140033",
  "immutableReferences": {},
  "source": "// SPDX-License-Identifier: MIT\r\npragma solidity ^0.8.0;\r\n\r\ncontract SupplyChainOld {\r\n    address public owner;\r\n\r\n    enum Roles {\r\n        NoRole,\r\n        Supplier,\r\n        Transporter,\r\n        Manufacturer,\r\n        Wholesaler,\r\n        Distributor,\r\n        Pharma,\r\n        Revoked\r\n    }\r\n\r\n    enum PackageStatus {\r\n        AtCreator,\r\n        Picked,\r\n        Delivered\r\n    }\r\n\r\n    struct UserInfo {\r\n        bytes32 name;\r\n        bytes32 location;\r\n        address ethAddress;\r\n        Roles role;\r\n    }\r\n\r\n    mapping(address => UserInfo) public userDetails;\r\n    address[] public users;\r\n\r\n    struct RawProductInfo {\r\n        bytes32 productId;\r\n        bytes32 description;\r\n        bytes32 farmerName;\r\n        bytes32 location;\r\n        uint256 quantity;\r\n        address shipper;\r\n        address receiver;\r\n        address supplier;\r\n        PackageStatus status;\r\n    }\r\n\r\n    mapping(bytes32 => RawProductInfo) public rawProductDetails;\r\n    mapping(address => bytes32[]) public supplierRawProducts;\r\n\r\n    event UserRegistered(address indexed ethAddress, bytes32 name);\r\n    event UserRoleRevoked(address indexed ethAddress, bytes32 name, Roles role);\r\n    event UserRoleReassigned(address indexed ethAddress, bytes32 name, Roles role);\r\n    event RawSupplyInitiated(\r\n        bytes32 indexed productId,\r\n        address indexed supplier,\r\n        address shipper,\r\n        address indexed receiver\r\n    );\r\n    event ShipmentUpdated(\r\n        bytes32 indexed batchId,\r\n        address indexed shipper,\r\n        address indexed receiver,\r\n        uint256 transporterType,\r\n        uint256 status\r\n    );\r\n\r\n    constructor() {\r\n        owner = msg.sender;\r\n    }\r\n\r\n    modifier onlyOwner() {\r\n        require(msg.sender == owner, \"Only the owner can call this function.\");\r\n        _;\r\n    }\r\n\r\n    modifier onlyRole(Roles requiredRole) {\r\n        require(userDetails[msg.sender].role == requiredRole, \"Unauthorized role.\");\r\n        _;\r\n    }\r\n\r\n    function registerUser(\r\n        address ethAddress,\r\n        bytes32 name,\r\n        bytes32 location,\r\n        uint256 role\r\n    ) public onlyOwner {\r\n        require(userDetails[ethAddress].role == Roles.NoRole, \"User is already registered.\");\r\n        userDetails[ethAddress] = UserInfo({\r\n            name: name,\r\n            location: location,\r\n            ethAddress: ethAddress,\r\n            role: Roles(role)\r\n        });\r\n        users.push(ethAddress);\r\n        emit UserRegistered(ethAddress, name);\r\n    }\r\n\r\n    function revokeRole(address userAddress) public onlyOwner {\r\n        require(userDetails[userAddress].role != Roles.NoRole, \"User not registered.\");\r\n        emit UserRoleRevoked(\r\n            userAddress,\r\n            userDetails[userAddress].name,\r\n            userDetails[userAddress].role\r\n        );\r\n        userDetails[userAddress].role = Roles.Revoked;\r\n    }\r\n\r\n    function reassignRole(address userAddress, uint256 role) public onlyOwner {\r\n        require(userDetails[userAddress].role != Roles.NoRole, \"User not registered.\");\r\n        userDetails[userAddress].role = Roles(role);\r\n        emit UserRoleReassigned(\r\n            userAddress,\r\n            userDetails[userAddress].name,\r\n            userDetails[userAddress].role\r\n        );\r\n    }\r\n\r\n    function supplyRawMaterials(\r\n        bytes32 description,\r\n        bytes32 farmerName,\r\n        bytes32 location,\r\n        uint256 quantity,\r\n        address shipper,\r\n        address receiver\r\n    ) public onlyRole(Roles.Supplier) {\r\n        bytes32 productId = keccak256(\r\n            abi.encodePacked(msg.sender, block.number, quantity)\r\n        );\r\n        rawProductDetails[productId] = RawProductInfo({\r\n            productId: productId,\r\n            description: description,\r\n            farmerName: farmerName,\r\n            location: location,\r\n            quantity: quantity,\r\n            shipper: shipper,\r\n            receiver: receiver,\r\n            supplier: msg.sender,\r\n            status: PackageStatus.AtCreator\r\n        });\r\n        supplierRawProducts[msg.sender].push(productId);\r\n        emit RawSupplyInitiated(productId, msg.sender, shipper, receiver);\r\n    }\r\n\r\n    function pickPackage(bytes32 productId, address shipper) public {\r\n        require(\r\n            rawProductDetails[productId].shipper == shipper,\r\n            \"Unauthorized shipper.\"\r\n        );\r\n        require(\r\n            rawProductDetails[productId].status == PackageStatus.AtCreator,\r\n            \"Package not at creator stage.\"\r\n        );\r\n        rawProductDetails[productId].status = PackageStatus.Picked;\r\n        emit ShipmentUpdated(\r\n            productId,\r\n            shipper,\r\n            rawProductDetails[productId].receiver,\r\n            1,\r\n            uint256(PackageStatus.Picked)\r\n        );\r\n    }\r\n\r\n    function receivePackage(bytes32 productId, address receiver) public {\r\n        require(\r\n            rawProductDetails[productId].receiver == receiver,\r\n            \"Unauthorized receiver.\"\r\n        );\r\n        require(\r\n            rawProductDetails[productId].status == PackageStatus.Picked,\r\n            \"Package not picked yet.\"\r\n        );\r\n        rawProductDetails[productId].status = PackageStatus.Delivered;\r\n        emit ShipmentUpdated(\r\n            productId,\r\n            rawProductDetails[productId].shipper,\r\n            receiver,\r\n            1,\r\n            uint256(PackageStatus.Delivered)\r\n        );\r\n    }\r\n\r\n    function getUsersCount() public view returns (uint256) {\r\n        return users.length;\r\n    }\r\n\r\n    function getUserByIndex(uint256 index) public view returns (UserInfo memory) {\r\n        require(index < users.length, \"Index out of bounds.\");\r\n        return userDetails[users[index]];\r\n    }\r\n\r\n    function getRawProductsBySupplier(address supplier) public view returns (bytes32[] memory) {\r\n        return supplierRawProducts[supplier];\r\n    }\r\n\r\n    function getRawProductDetails(bytes32 productId)\r\n        public\r\n        view\r\n        returns (RawProductInfo memory)\r\n    {\r\n        return rawProductDetails[productId];\r\n    }\r\n}\r\n",
  "sourcePath": "C:\\Users\\User\\OneDrive\\Desktop\\blockchain\\Blockchain_SupplyChain\\contracts\\SupplyChain_old.sol",
  "compiler": {
    "name": "solc",
    "version": "0.8.20+commit.a1b79de6.Emscripten.clang"
  },
  "schemaVersion": "3.4.16",
  "updatedAt": "2024-12-07T19:15:51.627Z",
  "devdoc": {
    "kind": "dev",
    "methods": {},
    "version": 1
  },
  "userdoc": {
    "kind": "user",
    "methods": {},
    "version": 1
  }
}